{
	"data": {
		"bytecode": {
			"linkReferences": {},
			"object": "608060405234801561001057600080fd5b506107e0806100206000396000f3fe608060405234801561001057600080fd5b506004361061007d5760003560e01c806354dcb1e61161005b57806354dcb1e61461011957806354f76993146101aa578063aa5b6d4c146101ca578063e29b0904146101df57600080fd5b8063024ad62b146100825780631588ace4146100ab57806354d5e02414610106575b600080fd5b6100956100903660046105f1565b6101f2565b6040516100a291906106a9565b60405180910390f35b6100f66100b93660046105f1565b6001600160a01b031660009081526001602081815260408320820180548084018255908452922090910180546001600160a01b0319163317905590565b60405190151581526020016100a2565b6100f66101143660046105f1565b61026b565b6100f66101273660046105f1565b60008054600181810183556001600160a01b0390931680835260208481526040842060029093027f290decd9548b62a8d60345a988386fc84ba6bc95484008f6362f93160ef3e5630180546001600160a01b0319908116841790915583548116909217835591840180548086018255908452919092200180549091163317905590565b6101bd6101b83660046105f1565b61034a565b6040516100a29190610758565b6101d26103ef565b6040516100a291906106f6565b6100f66101ed366004610613565b6104bb565b6001600160a01b03811660009081526001602081815260409283902090910180548351818402810184019094528084526060939283018282801561025f57602002820191906000526020600020905b81546001600160a01b03168152600190910190602001808311610241575b50505050509050919050565b6000805b60005481101561030957826001600160a01b03166000828154811061029657610296610794565b60009182526020909120600290910201546001600160a01b031614156102f757600081815481106102c9576102c9610794565b60009182526020822060029091020180546001600160a01b0319168155906102f4600183018261059b565b50505b806103018161076b565b91505061026f565b506001600160a01b0382166000908152600160208190526040822080546001600160a01b031916815591906103409083018261059b565b5060019392505050565b6040805180820190915260008152606060208201526001600160a01b038083166000908152600160208181526040928390208351808501855281549095168552918201805484518184028101840190955280855292938583019390928301828280156103df57602002820191906000526020600020905b81546001600160a01b031681526001909101906020018083116103c1575b5050505050815250509050919050565b60606000805480602002602001604051908101604052809291908181526020016000905b828210156104b25760008481526020908190206040805180820182526002860290920180546001600160a01b0316835260018101805483518187028101870190945280845293949193858301939283018282801561049a57602002820191906000526020600020905b81546001600160a01b0316815260019091019060200180831161047c575b50505050508152505081526020019060010190610413565b50505050905090565b6000805b6001600160a01b0384166000908152600160208190526040909120015481101561034057826001600160a01b031660016000866001600160a01b03166001600160a01b03168152602001908152602001600020600101828154811061052657610526610794565b6000918252602090912001546001600160a01b03161415610589576001600160a01b03841660009081526001602081905260409091200180548290811061056f5761056f610794565b600091825260209091200180546001600160a01b03191690555b806105938161076b565b9150506104bf565b50805460008255906000526020600020908101906105b991906105bc565b50565b5b808211156105d157600081556001016105bd565b5090565b80356001600160a01b03811681146105ec57600080fd5b919050565b60006020828403121561060357600080fd5b61060c826105d5565b9392505050565b6000806040838503121561062657600080fd5b61062f836105d5565b915061063d602084016105d5565b90509250929050565b80516001600160a01b039081168352602080830151604082860181905281519086018190526000939183019290849060608801905b8083101561069d5785518516825294830194600192909201919083019061067b565b50979650505050505050565b6020808252825182820181905260009190848201906040850190845b818110156106ea5783516001600160a01b0316835292840192918401916001016106c5565b50909695505050505050565b6000602080830181845280855180835260408601915060408160051b870101925083870160005b8281101561074b57603f19888603018452610739858351610646565b9450928501929085019060010161071d565b5092979650505050505050565b60208152600061060c6020830184610646565b600060001982141561078d57634e487b7160e01b600052601160045260246000fd5b5060010190565b634e487b7160e01b600052603260045260246000fdfea26469706673582212200fa0236b4811d398b534319e52fddf9ad4b2ad30c52f62a84dac734d0ee159a764736f6c63430008070033",
			"opcodes": "PUSH1 0x80 PUSH1 0x40 MSTORE CALLVALUE DUP1 ISZERO PUSH2 0x10 JUMPI PUSH1 0x0 DUP1 REVERT JUMPDEST POP PUSH2 0x7E0 DUP1 PUSH2 0x20 PUSH1 0x0 CODECOPY PUSH1 0x0 RETURN INVALID PUSH1 0x80 PUSH1 0x40 MSTORE CALLVALUE DUP1 ISZERO PUSH2 0x10 JUMPI PUSH1 0x0 DUP1 REVERT JUMPDEST POP PUSH1 0x4 CALLDATASIZE LT PUSH2 0x7D JUMPI PUSH1 0x0 CALLDATALOAD PUSH1 0xE0 SHR DUP1 PUSH4 0x54DCB1E6 GT PUSH2 0x5B JUMPI DUP1 PUSH4 0x54DCB1E6 EQ PUSH2 0x119 JUMPI DUP1 PUSH4 0x54F76993 EQ PUSH2 0x1AA JUMPI DUP1 PUSH4 0xAA5B6D4C EQ PUSH2 0x1CA JUMPI DUP1 PUSH4 0xE29B0904 EQ PUSH2 0x1DF JUMPI PUSH1 0x0 DUP1 REVERT JUMPDEST DUP1 PUSH4 0x24AD62B EQ PUSH2 0x82 JUMPI DUP1 PUSH4 0x1588ACE4 EQ PUSH2 0xAB JUMPI DUP1 PUSH4 0x54D5E024 EQ PUSH2 0x106 JUMPI JUMPDEST PUSH1 0x0 DUP1 REVERT JUMPDEST PUSH2 0x95 PUSH2 0x90 CALLDATASIZE PUSH1 0x4 PUSH2 0x5F1 JUMP JUMPDEST PUSH2 0x1F2 JUMP JUMPDEST PUSH1 0x40 MLOAD PUSH2 0xA2 SWAP2 SWAP1 PUSH2 0x6A9 JUMP JUMPDEST PUSH1 0x40 MLOAD DUP1 SWAP2 SUB SWAP1 RETURN JUMPDEST PUSH2 0xF6 PUSH2 0xB9 CALLDATASIZE PUSH1 0x4 PUSH2 0x5F1 JUMP JUMPDEST PUSH1 0x1 PUSH1 0x1 PUSH1 0xA0 SHL SUB AND PUSH1 0x0 SWAP1 DUP2 MSTORE PUSH1 0x1 PUSH1 0x20 DUP2 DUP2 MSTORE PUSH1 0x40 DUP4 KECCAK256 DUP3 ADD DUP1 SLOAD DUP1 DUP5 ADD DUP3 SSTORE SWAP1 DUP5 MSTORE SWAP3 KECCAK256 SWAP1 SWAP2 ADD DUP1 SLOAD PUSH1 0x1 PUSH1 0x1 PUSH1 0xA0 SHL SUB NOT AND CALLER OR SWAP1 SSTORE SWAP1 JUMP JUMPDEST PUSH1 0x40 MLOAD SWAP1 ISZERO ISZERO DUP2 MSTORE PUSH1 0x20 ADD PUSH2 0xA2 JUMP JUMPDEST PUSH2 0xF6 PUSH2 0x114 CALLDATASIZE PUSH1 0x4 PUSH2 0x5F1 JUMP JUMPDEST PUSH2 0x26B JUMP JUMPDEST PUSH2 0xF6 PUSH2 0x127 CALLDATASIZE PUSH1 0x4 PUSH2 0x5F1 JUMP JUMPDEST PUSH1 0x0 DUP1 SLOAD PUSH1 0x1 DUP2 DUP2 ADD DUP4 SSTORE PUSH1 0x1 PUSH1 0x1 PUSH1 0xA0 SHL SUB SWAP1 SWAP4 AND DUP1 DUP4 MSTORE PUSH1 0x20 DUP5 DUP2 MSTORE PUSH1 0x40 DUP5 KECCAK256 PUSH1 0x2 SWAP1 SWAP4 MUL PUSH32 0x290DECD9548B62A8D60345A988386FC84BA6BC95484008F6362F93160EF3E563 ADD DUP1 SLOAD PUSH1 0x1 PUSH1 0x1 PUSH1 0xA0 SHL SUB NOT SWAP1 DUP2 AND DUP5 OR SWAP1 SWAP2 SSTORE DUP4 SLOAD DUP2 AND SWAP1 SWAP3 OR DUP4 SSTORE SWAP2 DUP5 ADD DUP1 SLOAD DUP1 DUP7 ADD DUP3 SSTORE SWAP1 DUP5 MSTORE SWAP2 SWAP1 SWAP3 KECCAK256 ADD DUP1 SLOAD SWAP1 SWAP2 AND CALLER OR SWAP1 SSTORE SWAP1 JUMP JUMPDEST PUSH2 0x1BD PUSH2 0x1B8 CALLDATASIZE PUSH1 0x4 PUSH2 0x5F1 JUMP JUMPDEST PUSH2 0x34A JUMP JUMPDEST PUSH1 0x40 MLOAD PUSH2 0xA2 SWAP2 SWAP1 PUSH2 0x758 JUMP JUMPDEST PUSH2 0x1D2 PUSH2 0x3EF JUMP JUMPDEST PUSH1 0x40 MLOAD PUSH2 0xA2 SWAP2 SWAP1 PUSH2 0x6F6 JUMP JUMPDEST PUSH2 0xF6 PUSH2 0x1ED CALLDATASIZE PUSH1 0x4 PUSH2 0x613 JUMP JUMPDEST PUSH2 0x4BB JUMP JUMPDEST PUSH1 0x1 PUSH1 0x1 PUSH1 0xA0 SHL SUB DUP2 AND PUSH1 0x0 SWAP1 DUP2 MSTORE PUSH1 0x1 PUSH1 0x20 DUP2 DUP2 MSTORE PUSH1 0x40 SWAP3 DUP4 SWAP1 KECCAK256 SWAP1 SWAP2 ADD DUP1 SLOAD DUP4 MLOAD DUP2 DUP5 MUL DUP2 ADD DUP5 ADD SWAP1 SWAP5 MSTORE DUP1 DUP5 MSTORE PUSH1 0x60 SWAP4 SWAP3 DUP4 ADD DUP3 DUP3 DUP1 ISZERO PUSH2 0x25F JUMPI PUSH1 0x20 MUL DUP3 ADD SWAP2 SWAP1 PUSH1 0x0 MSTORE PUSH1 0x20 PUSH1 0x0 KECCAK256 SWAP1 JUMPDEST DUP2 SLOAD PUSH1 0x1 PUSH1 0x1 PUSH1 0xA0 SHL SUB AND DUP2 MSTORE PUSH1 0x1 SWAP1 SWAP2 ADD SWAP1 PUSH1 0x20 ADD DUP1 DUP4 GT PUSH2 0x241 JUMPI JUMPDEST POP POP POP POP POP SWAP1 POP SWAP2 SWAP1 POP JUMP JUMPDEST PUSH1 0x0 DUP1 JUMPDEST PUSH1 0x0 SLOAD DUP2 LT ISZERO PUSH2 0x309 JUMPI DUP3 PUSH1 0x1 PUSH1 0x1 PUSH1 0xA0 SHL SUB AND PUSH1 0x0 DUP3 DUP2 SLOAD DUP2 LT PUSH2 0x296 JUMPI PUSH2 0x296 PUSH2 0x794 JUMP JUMPDEST PUSH1 0x0 SWAP2 DUP3 MSTORE PUSH1 0x20 SWAP1 SWAP2 KECCAK256 PUSH1 0x2 SWAP1 SWAP2 MUL ADD SLOAD PUSH1 0x1 PUSH1 0x1 PUSH1 0xA0 SHL SUB AND EQ ISZERO PUSH2 0x2F7 JUMPI PUSH1 0x0 DUP2 DUP2 SLOAD DUP2 LT PUSH2 0x2C9 JUMPI PUSH2 0x2C9 PUSH2 0x794 JUMP JUMPDEST PUSH1 0x0 SWAP2 DUP3 MSTORE PUSH1 0x20 DUP3 KECCAK256 PUSH1 0x2 SWAP1 SWAP2 MUL ADD DUP1 SLOAD PUSH1 0x1 PUSH1 0x1 PUSH1 0xA0 SHL SUB NOT AND DUP2 SSTORE SWAP1 PUSH2 0x2F4 PUSH1 0x1 DUP4 ADD DUP3 PUSH2 0x59B JUMP JUMPDEST POP POP JUMPDEST DUP1 PUSH2 0x301 DUP2 PUSH2 0x76B JUMP JUMPDEST SWAP2 POP POP PUSH2 0x26F JUMP JUMPDEST POP PUSH1 0x1 PUSH1 0x1 PUSH1 0xA0 SHL SUB DUP3 AND PUSH1 0x0 SWAP1 DUP2 MSTORE PUSH1 0x1 PUSH1 0x20 DUP2 SWAP1 MSTORE PUSH1 0x40 DUP3 KECCAK256 DUP1 SLOAD PUSH1 0x1 PUSH1 0x1 PUSH1 0xA0 SHL SUB NOT AND DUP2 SSTORE SWAP2 SWAP1 PUSH2 0x340 SWAP1 DUP4 ADD DUP3 PUSH2 0x59B JUMP JUMPDEST POP PUSH1 0x1 SWAP4 SWAP3 POP POP POP JUMP JUMPDEST PUSH1 0x40 DUP1 MLOAD DUP1 DUP3 ADD SWAP1 SWAP2 MSTORE PUSH1 0x0 DUP2 MSTORE PUSH1 0x60 PUSH1 0x20 DUP3 ADD MSTORE PUSH1 0x1 PUSH1 0x1 PUSH1 0xA0 SHL SUB DUP1 DUP4 AND PUSH1 0x0 SWAP1 DUP2 MSTORE PUSH1 0x1 PUSH1 0x20 DUP2 DUP2 MSTORE PUSH1 0x40 SWAP3 DUP4 SWAP1 KECCAK256 DUP4 MLOAD DUP1 DUP6 ADD DUP6 MSTORE DUP2 SLOAD SWAP1 SWAP6 AND DUP6 MSTORE SWAP2 DUP3 ADD DUP1 SLOAD DUP5 MLOAD DUP2 DUP5 MUL DUP2 ADD DUP5 ADD SWAP1 SWAP6 MSTORE DUP1 DUP6 MSTORE SWAP3 SWAP4 DUP6 DUP4 ADD SWAP4 SWAP1 SWAP3 DUP4 ADD DUP3 DUP3 DUP1 ISZERO PUSH2 0x3DF JUMPI PUSH1 0x20 MUL DUP3 ADD SWAP2 SWAP1 PUSH1 0x0 MSTORE PUSH1 0x20 PUSH1 0x0 KECCAK256 SWAP1 JUMPDEST DUP2 SLOAD PUSH1 0x1 PUSH1 0x1 PUSH1 0xA0 SHL SUB AND DUP2 MSTORE PUSH1 0x1 SWAP1 SWAP2 ADD SWAP1 PUSH1 0x20 ADD DUP1 DUP4 GT PUSH2 0x3C1 JUMPI JUMPDEST POP POP POP POP POP DUP2 MSTORE POP POP SWAP1 POP SWAP2 SWAP1 POP JUMP JUMPDEST PUSH1 0x60 PUSH1 0x0 DUP1 SLOAD DUP1 PUSH1 0x20 MUL PUSH1 0x20 ADD PUSH1 0x40 MLOAD SWAP1 DUP2 ADD PUSH1 0x40 MSTORE DUP1 SWAP3 SWAP2 SWAP1 DUP2 DUP2 MSTORE PUSH1 0x20 ADD PUSH1 0x0 SWAP1 JUMPDEST DUP3 DUP3 LT ISZERO PUSH2 0x4B2 JUMPI PUSH1 0x0 DUP5 DUP2 MSTORE PUSH1 0x20 SWAP1 DUP2 SWAP1 KECCAK256 PUSH1 0x40 DUP1 MLOAD DUP1 DUP3 ADD DUP3 MSTORE PUSH1 0x2 DUP7 MUL SWAP1 SWAP3 ADD DUP1 SLOAD PUSH1 0x1 PUSH1 0x1 PUSH1 0xA0 SHL SUB AND DUP4 MSTORE PUSH1 0x1 DUP2 ADD DUP1 SLOAD DUP4 MLOAD DUP2 DUP8 MUL DUP2 ADD DUP8 ADD SWAP1 SWAP5 MSTORE DUP1 DUP5 MSTORE SWAP4 SWAP5 SWAP2 SWAP4 DUP6 DUP4 ADD SWAP4 SWAP3 DUP4 ADD DUP3 DUP3 DUP1 ISZERO PUSH2 0x49A JUMPI PUSH1 0x20 MUL DUP3 ADD SWAP2 SWAP1 PUSH1 0x0 MSTORE PUSH1 0x20 PUSH1 0x0 KECCAK256 SWAP1 JUMPDEST DUP2 SLOAD PUSH1 0x1 PUSH1 0x1 PUSH1 0xA0 SHL SUB AND DUP2 MSTORE PUSH1 0x1 SWAP1 SWAP2 ADD SWAP1 PUSH1 0x20 ADD DUP1 DUP4 GT PUSH2 0x47C JUMPI JUMPDEST POP POP POP POP POP DUP2 MSTORE POP POP DUP2 MSTORE PUSH1 0x20 ADD SWAP1 PUSH1 0x1 ADD SWAP1 PUSH2 0x413 JUMP JUMPDEST POP POP POP POP SWAP1 POP SWAP1 JUMP JUMPDEST PUSH1 0x0 DUP1 JUMPDEST PUSH1 0x1 PUSH1 0x1 PUSH1 0xA0 SHL SUB DUP5 AND PUSH1 0x0 SWAP1 DUP2 MSTORE PUSH1 0x1 PUSH1 0x20 DUP2 SWAP1 MSTORE PUSH1 0x40 SWAP1 SWAP2 KECCAK256 ADD SLOAD DUP2 LT ISZERO PUSH2 0x340 JUMPI DUP3 PUSH1 0x1 PUSH1 0x1 PUSH1 0xA0 SHL SUB AND PUSH1 0x1 PUSH1 0x0 DUP7 PUSH1 0x1 PUSH1 0x1 PUSH1 0xA0 SHL SUB AND PUSH1 0x1 PUSH1 0x1 PUSH1 0xA0 SHL SUB AND DUP2 MSTORE PUSH1 0x20 ADD SWAP1 DUP2 MSTORE PUSH1 0x20 ADD PUSH1 0x0 KECCAK256 PUSH1 0x1 ADD DUP3 DUP2 SLOAD DUP2 LT PUSH2 0x526 JUMPI PUSH2 0x526 PUSH2 0x794 JUMP JUMPDEST PUSH1 0x0 SWAP2 DUP3 MSTORE PUSH1 0x20 SWAP1 SWAP2 KECCAK256 ADD SLOAD PUSH1 0x1 PUSH1 0x1 PUSH1 0xA0 SHL SUB AND EQ ISZERO PUSH2 0x589 JUMPI PUSH1 0x1 PUSH1 0x1 PUSH1 0xA0 SHL SUB DUP5 AND PUSH1 0x0 SWAP1 DUP2 MSTORE PUSH1 0x1 PUSH1 0x20 DUP2 SWAP1 MSTORE PUSH1 0x40 SWAP1 SWAP2 KECCAK256 ADD DUP1 SLOAD DUP3 SWAP1 DUP2 LT PUSH2 0x56F JUMPI PUSH2 0x56F PUSH2 0x794 JUMP JUMPDEST PUSH1 0x0 SWAP2 DUP3 MSTORE PUSH1 0x20 SWAP1 SWAP2 KECCAK256 ADD DUP1 SLOAD PUSH1 0x1 PUSH1 0x1 PUSH1 0xA0 SHL SUB NOT AND SWAP1 SSTORE JUMPDEST DUP1 PUSH2 0x593 DUP2 PUSH2 0x76B JUMP JUMPDEST SWAP2 POP POP PUSH2 0x4BF JUMP JUMPDEST POP DUP1 SLOAD PUSH1 0x0 DUP3 SSTORE SWAP1 PUSH1 0x0 MSTORE PUSH1 0x20 PUSH1 0x0 KECCAK256 SWAP1 DUP2 ADD SWAP1 PUSH2 0x5B9 SWAP2 SWAP1 PUSH2 0x5BC JUMP JUMPDEST POP JUMP JUMPDEST JUMPDEST DUP1 DUP3 GT ISZERO PUSH2 0x5D1 JUMPI PUSH1 0x0 DUP2 SSTORE PUSH1 0x1 ADD PUSH2 0x5BD JUMP JUMPDEST POP SWAP1 JUMP JUMPDEST DUP1 CALLDATALOAD PUSH1 0x1 PUSH1 0x1 PUSH1 0xA0 SHL SUB DUP2 AND DUP2 EQ PUSH2 0x5EC JUMPI PUSH1 0x0 DUP1 REVERT JUMPDEST SWAP2 SWAP1 POP JUMP JUMPDEST PUSH1 0x0 PUSH1 0x20 DUP3 DUP5 SUB SLT ISZERO PUSH2 0x603 JUMPI PUSH1 0x0 DUP1 REVERT JUMPDEST PUSH2 0x60C DUP3 PUSH2 0x5D5 JUMP JUMPDEST SWAP4 SWAP3 POP POP POP JUMP JUMPDEST PUSH1 0x0 DUP1 PUSH1 0x40 DUP4 DUP6 SUB SLT ISZERO PUSH2 0x626 JUMPI PUSH1 0x0 DUP1 REVERT JUMPDEST PUSH2 0x62F DUP4 PUSH2 0x5D5 JUMP JUMPDEST SWAP2 POP PUSH2 0x63D PUSH1 0x20 DUP5 ADD PUSH2 0x5D5 JUMP JUMPDEST SWAP1 POP SWAP3 POP SWAP3 SWAP1 POP JUMP JUMPDEST DUP1 MLOAD PUSH1 0x1 PUSH1 0x1 PUSH1 0xA0 SHL SUB SWAP1 DUP2 AND DUP4 MSTORE PUSH1 0x20 DUP1 DUP4 ADD MLOAD PUSH1 0x40 DUP3 DUP7 ADD DUP2 SWAP1 MSTORE DUP2 MLOAD SWAP1 DUP7 ADD DUP2 SWAP1 MSTORE PUSH1 0x0 SWAP4 SWAP2 DUP4 ADD SWAP3 SWAP1 DUP5 SWAP1 PUSH1 0x60 DUP9 ADD SWAP1 JUMPDEST DUP1 DUP4 LT ISZERO PUSH2 0x69D JUMPI DUP6 MLOAD DUP6 AND DUP3 MSTORE SWAP5 DUP4 ADD SWAP5 PUSH1 0x1 SWAP3 SWAP1 SWAP3 ADD SWAP2 SWAP1 DUP4 ADD SWAP1 PUSH2 0x67B JUMP JUMPDEST POP SWAP8 SWAP7 POP POP POP POP POP POP POP JUMP JUMPDEST PUSH1 0x20 DUP1 DUP3 MSTORE DUP3 MLOAD DUP3 DUP3 ADD DUP2 SWAP1 MSTORE PUSH1 0x0 SWAP2 SWAP1 DUP5 DUP3 ADD SWAP1 PUSH1 0x40 DUP6 ADD SWAP1 DUP5 JUMPDEST DUP2 DUP2 LT ISZERO PUSH2 0x6EA JUMPI DUP4 MLOAD PUSH1 0x1 PUSH1 0x1 PUSH1 0xA0 SHL SUB AND DUP4 MSTORE SWAP3 DUP5 ADD SWAP3 SWAP2 DUP5 ADD SWAP2 PUSH1 0x1 ADD PUSH2 0x6C5 JUMP JUMPDEST POP SWAP1 SWAP7 SWAP6 POP POP POP POP POP POP JUMP JUMPDEST PUSH1 0x0 PUSH1 0x20 DUP1 DUP4 ADD DUP2 DUP5 MSTORE DUP1 DUP6 MLOAD DUP1 DUP4 MSTORE PUSH1 0x40 DUP7 ADD SWAP2 POP PUSH1 0x40 DUP2 PUSH1 0x5 SHL DUP8 ADD ADD SWAP3 POP DUP4 DUP8 ADD PUSH1 0x0 JUMPDEST DUP3 DUP2 LT ISZERO PUSH2 0x74B JUMPI PUSH1 0x3F NOT DUP9 DUP7 SUB ADD DUP5 MSTORE PUSH2 0x739 DUP6 DUP4 MLOAD PUSH2 0x646 JUMP JUMPDEST SWAP5 POP SWAP3 DUP6 ADD SWAP3 SWAP1 DUP6 ADD SWAP1 PUSH1 0x1 ADD PUSH2 0x71D JUMP JUMPDEST POP SWAP3 SWAP8 SWAP7 POP POP POP POP POP POP POP JUMP JUMPDEST PUSH1 0x20 DUP2 MSTORE PUSH1 0x0 PUSH2 0x60C PUSH1 0x20 DUP4 ADD DUP5 PUSH2 0x646 JUMP JUMPDEST PUSH1 0x0 PUSH1 0x0 NOT DUP3 EQ ISZERO PUSH2 0x78D JUMPI PUSH4 0x4E487B71 PUSH1 0xE0 SHL PUSH1 0x0 MSTORE PUSH1 0x11 PUSH1 0x4 MSTORE PUSH1 0x24 PUSH1 0x0 REVERT JUMPDEST POP PUSH1 0x1 ADD SWAP1 JUMP JUMPDEST PUSH4 0x4E487B71 PUSH1 0xE0 SHL PUSH1 0x0 MSTORE PUSH1 0x32 PUSH1 0x4 MSTORE PUSH1 0x24 PUSH1 0x0 REVERT INVALID LOG2 PUSH5 0x6970667358 0x22 SLT KECCAK256 0xF LOG0 0x23 PUSH12 0x4811D398B534319E52FDDF9A 0xD4 0xB2 0xAD ADDRESS 0xC5 0x2F PUSH3 0xA84DAC PUSH20 0x4D0EE159A764736F6C6343000807003300000000 "
		},
		"gasEstimates": {
			"creation": {
				"codeDepositCost": "403200",
				"executionCost": "436",
				"totalCost": "403636"
			},
			"external": {
				"addDao(address)": "121654",
				"getAllDaos()": "infinite",
				"getAllMembers(address)": "infinite",
				"getDao(address)": "infinite",
				"joinDao(address)": "48982",
				"removeDao(address)": "infinite",
				"removeMember(address,address)": "infinite"
			}
		},
		"methodIdentifiers": {
			"addDao(address)": "54dcb1e6",
			"getAllDaos()": "aa5b6d4c",
			"getAllMembers(address)": "024ad62b",
			"getDao(address)": "54f76993",
			"joinDao(address)": "1588ace4",
			"removeDao(address)": "54d5e024",
			"removeMember(address,address)": "e29b0904"
		}
	},
	"abi": [
		{
			"inputs": [
				{
					"internalType": "address",
					"name": "dao",
					"type": "address"
				}
			],
			"name": "addDao",
			"outputs": [
				{
					"internalType": "bool",
					"name": "success",
					"type": "bool"
				}
			],
			"stateMutability": "nonpayable",
			"type": "function"
		},
		{
			"inputs": [],
			"name": "getAllDaos",
			"outputs": [
				{
					"components": [
						{
							"internalType": "address",
							"name": "contractAddress",
							"type": "address"
						},
						{
							"internalType": "address[]",
							"name": "membersArray",
							"type": "address[]"
						}
					],
					"internalType": "struct Bounti.Dao[]",
					"name": "",
					"type": "tuple[]"
				}
			],
			"stateMutability": "view",
			"type": "function"
		},
		{
			"inputs": [
				{
					"internalType": "address",
					"name": "dao",
					"type": "address"
				}
			],
			"name": "getAllMembers",
			"outputs": [
				{
					"internalType": "address[]",
					"name": "",
					"type": "address[]"
				}
			],
			"stateMutability": "view",
			"type": "function"
		},
		{
			"inputs": [
				{
					"internalType": "address",
					"name": "dao",
					"type": "address"
				}
			],
			"name": "getDao",
			"outputs": [
				{
					"components": [
						{
							"internalType": "address",
							"name": "contractAddress",
							"type": "address"
						},
						{
							"internalType": "address[]",
							"name": "membersArray",
							"type": "address[]"
						}
					],
					"internalType": "struct Bounti.Dao",
					"name": "",
					"type": "tuple"
				}
			],
			"stateMutability": "view",
			"type": "function"
		},
		{
			"inputs": [
				{
					"internalType": "address",
					"name": "dao",
					"type": "address"
				}
			],
			"name": "joinDao",
			"outputs": [
				{
					"internalType": "bool",
					"name": "success",
					"type": "bool"
				}
			],
			"stateMutability": "nonpayable",
			"type": "function"
		},
		{
			"inputs": [
				{
					"internalType": "address",
					"name": "dao",
					"type": "address"
				}
			],
			"name": "removeDao",
			"outputs": [
				{
					"internalType": "bool",
					"name": "succes",
					"type": "bool"
				}
			],
			"stateMutability": "nonpayable",
			"type": "function"
		},
		{
			"inputs": [
				{
					"internalType": "address",
					"name": "dao",
					"type": "address"
				},
				{
					"internalType": "address",
					"name": "member",
					"type": "address"
				}
			],
			"name": "removeMember",
			"outputs": [
				{
					"internalType": "bool",
					"name": "success",
					"type": "bool"
				}
			],
			"stateMutability": "nonpayable",
			"type": "function"
		}
	]
}