{
  "_format": "hh-sol-artifact-1",
  "contractName": "Daos",
  "sourceName": "contracts/Daos.sol",
  "abi": [
    {
      "inputs": [
        {
          "internalType": "address",
          "name": "dao",
          "type": "address"
        }
      ],
      "name": "addDao",
      "outputs": [
        {
          "internalType": "bool",
          "name": "success",
          "type": "bool"
        }
      ],
      "stateMutability": "nonpayable",
      "type": "function"
    },
    {
      "inputs": [
        {
          "internalType": "address",
          "name": "dao",
          "type": "address"
        },
        {
          "internalType": "address",
          "name": "member",
          "type": "address"
        }
      ],
      "name": "checkMember",
      "outputs": [
        {
          "internalType": "bool",
          "name": "success",
          "type": "bool"
        }
      ],
      "stateMutability": "view",
      "type": "function"
    },
    {
      "inputs": [],
      "name": "getAllDaos",
      "outputs": [
        {
          "internalType": "address[]",
          "name": "",
          "type": "address[]"
        }
      ],
      "stateMutability": "view",
      "type": "function"
    },
    {
      "inputs": [
        {
          "internalType": "address",
          "name": "dao",
          "type": "address"
        }
      ],
      "name": "getAllMembers",
      "outputs": [
        {
          "internalType": "address[]",
          "name": "",
          "type": "address[]"
        }
      ],
      "stateMutability": "view",
      "type": "function"
    },
    {
      "inputs": [
        {
          "internalType": "address",
          "name": "dao",
          "type": "address"
        }
      ],
      "name": "getDao",
      "outputs": [
        {
          "components": [
            {
              "internalType": "address",
              "name": "contractAddress",
              "type": "address"
            },
            {
              "internalType": "address[]",
              "name": "membersArray",
              "type": "address[]"
            }
          ],
          "internalType": "struct Daos.Dao",
          "name": "",
          "type": "tuple"
        }
      ],
      "stateMutability": "view",
      "type": "function"
    },
    {
      "inputs": [
        {
          "internalType": "address",
          "name": "dao",
          "type": "address"
        }
      ],
      "name": "getMembersNumber",
      "outputs": [
        {
          "internalType": "uint256",
          "name": "",
          "type": "uint256"
        }
      ],
      "stateMutability": "view",
      "type": "function"
    },
    {
      "inputs": [
        {
          "internalType": "address",
          "name": "dao",
          "type": "address"
        }
      ],
      "name": "joinDao",
      "outputs": [
        {
          "internalType": "bool",
          "name": "success",
          "type": "bool"
        }
      ],
      "stateMutability": "nonpayable",
      "type": "function"
    },
    {
      "inputs": [
        {
          "internalType": "address",
          "name": "dao",
          "type": "address"
        }
      ],
      "name": "removeDao",
      "outputs": [
        {
          "internalType": "bool",
          "name": "succes",
          "type": "bool"
        }
      ],
      "stateMutability": "nonpayable",
      "type": "function"
    },
    {
      "inputs": [
        {
          "internalType": "address",
          "name": "dao",
          "type": "address"
        },
        {
          "internalType": "address",
          "name": "member",
          "type": "address"
        }
      ],
      "name": "removeMember",
      "outputs": [
        {
          "internalType": "bool",
          "name": "success",
          "type": "bool"
        }
      ],
      "stateMutability": "nonpayable",
      "type": "function"
    }
  ],
  "bytecode": "0x608060405234801561001057600080fd5b5061101a806100206000396000f3fe608060405234801561001057600080fd5b50600436106100935760003560e01c806354dcb1e61161006657806354dcb1e61461015857806354f76993146101885780635f42eb53146101b8578063aa5b6d4c146101e8578063e29b09041461020657610093565b8063024ad62b1461009857806302f990d3146100c85780631588ace4146100f857806354d5e02414610128575b600080fd5b6100b260048036038101906100ad9190610ca6565b610236565b6040516100bf9190610e49565b60405180910390f35b6100e260048036038101906100dd9190610ccf565b610306565b6040516100ef9190610e6b565b60405180910390f35b610112600480360381019061010d9190610ca6565b61044e565b60405161011f9190610e6b565b60405180910390f35b610142600480360381019061013d9190610ca6565b6104fc565b60405161014f9190610e6b565b60405180910390f35b610172600480360381019061016d9190610ca6565b6106a7565b60405161017f9190610e6b565b60405180910390f35b6101a2600480360381019061019d9190610ca6565b61081a565b6040516101af9190610e86565b60405180910390f35b6101d260048036038101906101cd9190610ca6565b610957565b6040516101df9190610ea8565b60405180910390f35b6101f06109a6565b6040516101fd9190610e49565b60405180910390f35b610220600480360381019061021b9190610ccf565b610a34565b60405161022d9190610e6b565b60405180910390f35b6060600160008373ffffffffffffffffffffffffffffffffffffffff1673ffffffffffffffffffffffffffffffffffffffff1681526020019081526020016000206001018054806020026020016040519081016040528092919081815260200182805480156102fa57602002820191906000526020600020905b8160009054906101000a900473ffffffffffffffffffffffffffffffffffffffff1673ffffffffffffffffffffffffffffffffffffffff16815260200190600101908083116102b0575b50505050509050919050565b60008060009050600160008573ffffffffffffffffffffffffffffffffffffffff1673ffffffffffffffffffffffffffffffffffffffff16815260200190815260200160002060010180549050811015610446578273ffffffffffffffffffffffffffffffffffffffff16600160008673ffffffffffffffffffffffffffffffffffffffff1673ffffffffffffffffffffffffffffffffffffffff16815260200190815260200160002060010182815481106103eb577f4e487b7100000000000000000000000000000000000000000000000000000000600052603260045260246000fd5b9060005260206000200160009054906101000a900473ffffffffffffffffffffffffffffffffffffffff1673ffffffffffffffffffffffffffffffffffffffff16141561043c576001915050610448565b6000915050610448565b505b92915050565b6000600160008373ffffffffffffffffffffffffffffffffffffffff1673ffffffffffffffffffffffffffffffffffffffff168152602001908152602001600020600101339080600181540180825580915050600190039060005260206000200160009091909190916101000a81548173ffffffffffffffffffffffffffffffffffffffff021916908373ffffffffffffffffffffffffffffffffffffffff16021790555060019050919050565b600080600090505b600080549050811015610624578273ffffffffffffffffffffffffffffffffffffffff1660008281548110610562577f4e487b7100000000000000000000000000000000000000000000000000000000600052603260045260246000fd5b9060005260206000200160009054906101000a900473ffffffffffffffffffffffffffffffffffffffff1673ffffffffffffffffffffffffffffffffffffffff16141561061157600081815481106105e3577f4e487b7100000000000000000000000000000000000000000000000000000000600052603260045260246000fd5b9060005260206000200160006101000a81549073ffffffffffffffffffffffffffffffffffffffff02191690555b808061061c90610f55565b915050610504565b50600160008373ffffffffffffffffffffffffffffffffffffffff1673ffffffffffffffffffffffffffffffffffffffff168152602001908152602001600020600080820160006101000a81549073ffffffffffffffffffffffffffffffffffffffff021916905560018201600061069c9190610c23565b505060019050919050565b600080600181600181540180825580915050039060005260206000200160009054906101000a900473ffffffffffffffffffffffffffffffffffffffff1691506000600160008473ffffffffffffffffffffffffffffffffffffffff1673ffffffffffffffffffffffffffffffffffffffff1681526020019081526020016000209050828160000160006101000a81548173ffffffffffffffffffffffffffffffffffffffff021916908373ffffffffffffffffffffffffffffffffffffffff160217905550600160008473ffffffffffffffffffffffffffffffffffffffff1673ffffffffffffffffffffffffffffffffffffffff168152602001908152602001600020600101339080600181540180825580915050600190039060005260206000200160009091909190916101000a81548173ffffffffffffffffffffffffffffffffffffffff021916908373ffffffffffffffffffffffffffffffffffffffff1602179055506001915050919050565b610822610c44565b600160008373ffffffffffffffffffffffffffffffffffffffff1673ffffffffffffffffffffffffffffffffffffffff1681526020019081526020016000206040518060400160405290816000820160009054906101000a900473ffffffffffffffffffffffffffffffffffffffff1673ffffffffffffffffffffffffffffffffffffffff1673ffffffffffffffffffffffffffffffffffffffff1681526020016001820180548060200260200160405190810160405280929190818152602001828054801561094757602002820191906000526020600020905b8160009054906101000a900473ffffffffffffffffffffffffffffffffffffffff1673ffffffffffffffffffffffffffffffffffffffff16815260200190600101908083116108fd575b5050505050815250509050919050565b6000600160008373ffffffffffffffffffffffffffffffffffffffff1673ffffffffffffffffffffffffffffffffffffffff168152602001908152602001600020600101805490509050919050565b60606000805480602002602001604051908101604052809291908181526020018280548015610a2a57602002820191906000526020600020905b8160009054906101000a900473ffffffffffffffffffffffffffffffffffffffff1673ffffffffffffffffffffffffffffffffffffffff16815260200190600101908083116109e0575b5050505050905090565b60008060009050600160008573ffffffffffffffffffffffffffffffffffffffff1673ffffffffffffffffffffffffffffffffffffffff16815260200190815260200160002060010180549050811015610c1b578273ffffffffffffffffffffffffffffffffffffffff16600160008673ffffffffffffffffffffffffffffffffffffffff1673ffffffffffffffffffffffffffffffffffffffff1681526020019081526020016000206001018281548110610b19577f4e487b7100000000000000000000000000000000000000000000000000000000600052603260045260246000fd5b9060005260206000200160009054906101000a900473ffffffffffffffffffffffffffffffffffffffff1673ffffffffffffffffffffffffffffffffffffffff161415610c1157600160008573ffffffffffffffffffffffffffffffffffffffff1673ffffffffffffffffffffffffffffffffffffffff1681526020019081526020016000206001018181548110610bda577f4e487b7100000000000000000000000000000000000000000000000000000000600052603260045260246000fd5b9060005260206000200160006101000a81549073ffffffffffffffffffffffffffffffffffffffff02191690556001915050610c1d565b6000915050610c1d565b505b92915050565b5080546000825590600052602060002090810190610c419190610c74565b50565b6040518060400160405280600073ffffffffffffffffffffffffffffffffffffffff168152602001606081525090565b5b80821115610c8d576000816000905550600101610c75565b5090565b600081359050610ca081610fcd565b92915050565b600060208284031215610cb857600080fd5b6000610cc684828501610c91565b91505092915050565b60008060408385031215610ce257600080fd5b6000610cf085828601610c91565b9250506020610d0185828601610c91565b9150509250929050565b6000610d178383610d23565b60208301905092915050565b610d2c81610f0d565b82525050565b6000610d3d82610ed3565b610d478185610eeb565b9350610d5283610ec3565b8060005b83811015610d83578151610d6a8882610d0b565b9750610d7583610ede565b925050600181019050610d56565b5085935050505092915050565b6000610d9b82610ed3565b610da58185610efc565b9350610db083610ec3565b8060005b83811015610de1578151610dc88882610d0b565b9750610dd383610ede565b925050600181019050610db4565b5085935050505092915050565b610df781610f1f565b82525050565b6000604083016000830151610e156000860182610d23565b5060208301518482036020860152610e2d8282610d32565b9150508091505092915050565b610e4381610f4b565b82525050565b60006020820190508181036000830152610e638184610d90565b905092915050565b6000602082019050610e806000830184610dee565b92915050565b60006020820190508181036000830152610ea08184610dfd565b905092915050565b6000602082019050610ebd6000830184610e3a565b92915050565b6000819050602082019050919050565b600081519050919050565b6000602082019050919050565b600082825260208201905092915050565b600082825260208201905092915050565b6000610f1882610f2b565b9050919050565b60008115159050919050565b600073ffffffffffffffffffffffffffffffffffffffff82169050919050565b6000819050919050565b6000610f6082610f4b565b91507fffffffffffffffffffffffffffffffffffffffffffffffffffffffffffffffff821415610f9357610f92610f9e565b5b600182019050919050565b7f4e487b7100000000000000000000000000000000000000000000000000000000600052601160045260246000fd5b610fd681610f0d565b8114610fe157600080fd5b5056fea26469706673582212207817945f46eaf74571f1a540e29775ae12f371d64b8f25e7ca0cf8e13a251b5c64736f6c63430008040033",
  "linkReferences": {},
  "deployedLinkReferences": {}
}