{
  "_format": "hh-sol-artifact-1",
  "contractName": "TaskMemberManager",
  "sourceName": "contracts/TaskMemberManager.sol",
  "abi": [
    {
      "anonymous": false,
      "inputs": [
        {
          "indexed": false,
          "internalType": "uint8",
          "name": "version",
          "type": "uint8"
        }
      ],
      "name": "Initialized",
      "type": "event"
    },
    {
      "anonymous": false,
      "inputs": [
        {
          "indexed": true,
          "internalType": "address",
          "name": "previousOwner",
          "type": "address"
        },
        {
          "indexed": true,
          "internalType": "address",
          "name": "newOwner",
          "type": "address"
        }
      ],
      "name": "OwnershipTransferred",
      "type": "event"
    },
    {
      "inputs": [
        {
          "internalType": "string",
          "name": "id",
          "type": "string"
        }
      ],
      "name": "addReviewer",
      "outputs": [],
      "stateMutability": "nonpayable",
      "type": "function"
    },
    {
      "inputs": [
        {
          "internalType": "string",
          "name": "id",
          "type": "string"
        }
      ],
      "name": "addWorker",
      "outputs": [],
      "stateMutability": "nonpayable",
      "type": "function"
    },
    {
      "inputs": [
        {
          "internalType": "string",
          "name": "id",
          "type": "string"
        },
        {
          "internalType": "address[]",
          "name": "walletAddresses",
          "type": "address[]"
        }
      ],
      "name": "askForImprovements",
      "outputs": [],
      "stateMutability": "nonpayable",
      "type": "function"
    },
    {
      "inputs": [
        {
          "internalType": "string",
          "name": "id",
          "type": "string"
        }
      ],
      "name": "completeTask",
      "outputs": [
        {
          "components": [
            {
              "internalType": "address",
              "name": "walletAddress",
              "type": "address"
            },
            {
              "internalType": "uint256",
              "name": "reward",
              "type": "uint256"
            }
          ],
          "internalType": "struct TaskMemberManager.MemberToPay[]",
          "name": "",
          "type": "tuple[]"
        }
      ],
      "stateMutability": "view",
      "type": "function"
    },
    {
      "inputs": [
        {
          "internalType": "string",
          "name": "id",
          "type": "string"
        }
      ],
      "name": "completeWorkerPart",
      "outputs": [],
      "stateMutability": "nonpayable",
      "type": "function"
    },
    {
      "inputs": [
        {
          "internalType": "uint256[]",
          "name": "reviewersIndexes",
          "type": "uint256[]"
        }
      ],
      "name": "getAllReviewers",
      "outputs": [
        {
          "internalType": "address[]",
          "name": "",
          "type": "address[]"
        }
      ],
      "stateMutability": "view",
      "type": "function"
    },
    {
      "inputs": [
        {
          "internalType": "uint256[]",
          "name": "workersIndexes",
          "type": "uint256[]"
        }
      ],
      "name": "getAllWorkers",
      "outputs": [
        {
          "internalType": "address[]",
          "name": "",
          "type": "address[]"
        }
      ],
      "stateMutability": "view",
      "type": "function"
    },
    {
      "inputs": [],
      "name": "getTaskProxy",
      "outputs": [
        {
          "internalType": "address",
          "name": "",
          "type": "address"
        }
      ],
      "stateMutability": "view",
      "type": "function"
    },
    {
      "inputs": [],
      "name": "initialize",
      "outputs": [],
      "stateMutability": "nonpayable",
      "type": "function"
    },
    {
      "inputs": [],
      "name": "owner",
      "outputs": [
        {
          "internalType": "address",
          "name": "",
          "type": "address"
        }
      ],
      "stateMutability": "view",
      "type": "function"
    },
    {
      "inputs": [
        {
          "internalType": "string",
          "name": "id",
          "type": "string"
        },
        {
          "internalType": "uint256[]",
          "name": "workersIndexes",
          "type": "uint256[]"
        },
        {
          "internalType": "uint256[]",
          "name": "reviewersIndexes",
          "type": "uint256[]"
        }
      ],
      "name": "removeAllMembers",
      "outputs": [],
      "stateMutability": "nonpayable",
      "type": "function"
    },
    {
      "inputs": [
        {
          "internalType": "string",
          "name": "id",
          "type": "string"
        }
      ],
      "name": "removeMember",
      "outputs": [],
      "stateMutability": "nonpayable",
      "type": "function"
    },
    {
      "inputs": [],
      "name": "renounceOwnership",
      "outputs": [],
      "stateMutability": "nonpayable",
      "type": "function"
    },
    {
      "inputs": [
        {
          "internalType": "string",
          "name": "id",
          "type": "string"
        },
        {
          "internalType": "address[]",
          "name": "reviewedWorkers",
          "type": "address[]"
        },
        {
          "internalType": "uint256[]",
          "name": "grades",
          "type": "uint256[]"
        }
      ],
      "name": "reviewTask",
      "outputs": [],
      "stateMutability": "nonpayable",
      "type": "function"
    },
    {
      "inputs": [
        {
          "internalType": "address",
          "name": "_taskProxy",
          "type": "address"
        }
      ],
      "name": "setTaskProxy",
      "outputs": [],
      "stateMutability": "nonpayable",
      "type": "function"
    },
    {
      "inputs": [
        {
          "internalType": "address",
          "name": "newOwner",
          "type": "address"
        }
      ],
      "name": "transferOwnership",
      "outputs": [],
      "stateMutability": "nonpayable",
      "type": "function"
    }
  ],
  "bytecode": "0x608060405234801561001057600080fd5b50615b0d80620000216000396000f3fe608060405234801561001057600080fd5b50600436106101005760003560e01c80638da5cb5b11610097578063bacdf40b11610066578063bacdf40b1461025d578063e38b23a71461028d578063f2fde38b146102a9578063f55365a1146102c557610100565b80638da5cb5b146101eb578063a304fbc314610209578063a9ccf5c414610225578063b5fc1b691461024157610100565b8063394c244b116100d3578063394c244b146101775780635ec26c1f146101a7578063715018a6146101d75780638129fc1c146101e157610100565b8063077fb7ba146101055780630e55cb3f14610121578063316187481461013d57806337263f791461015b575b600080fd5b61011f600480360381019061011a91906149a9565b6102e1565b005b61013b60048036038101906101369190614890565b61066c565b005b61014561072c565b6040516101529190614fd2565b60405180910390f35b61017560048036038101906101709190614a63565b610756565b005b610191600480360381019061018c91906149a9565b610919565b60405161019e919061500f565b60405180910390f35b6101c160048036038101906101bc91906148fa565b610a22565b6040516101ce9190614fed565b60405180910390f35b6101df610c76565b005b6101e9610cfe565b005b6101f3610d92565b6040516102009190614fd2565b60405180910390f35b610223600480360381019061021e91906149a9565b610dbc565b005b61023f600480360381019061023a91906149a9565b611226565b005b61025b60048036038101906102569190614b07565b611695565b005b610277600480360381019061027291906148fa565b611809565b6040516102849190614fed565b60405180910390f35b6102a760048036038101906102a291906149ee565b611a61565b005b6102c360048036038101906102be9190614890565b611dde565b005b6102df60048036038101906102da91906149a9565b611ed6565b005b8181600180600281111561031e577f4e487b7100000000000000000000000000000000000000000000000000000000600052602160045260246000fd5b60668484604051610330929190614fb9565b908152602001604051809103902060003373ffffffffffffffffffffffffffffffffffffffff1673ffffffffffffffffffffffffffffffffffffffff16815260200190815260200160002060009054906101000a900460ff1660028111156103c1577f4e487b7100000000000000000000000000000000000000000000000000000000600052602160045260246000fd5b14610401576040517f08c379a00000000000000000000000000000000000000000000000000000000081526004016103f890615276565b60405180910390fd5b84846002606560009054906101000a900473ffffffffffffffffffffffffffffffffffffffff1673ffffffffffffffffffffffffffffffffffffffff1663acdf47c18484846040518463ffffffff1660e01b815260040161046493929190615104565b60206040518083038186803b15801561047c57600080fd5b505afa158015610490573d6000803e3d6000fd5b505050506040513d601f19601f820116820180604052508101906104b49190614980565b6104f3576040517f08c379a00000000000000000000000000000000000000000000000000000000081526004016104ea90615216565b60405180910390fd5b600060678989604051610507929190614fb9565b908152602001604051809103902060003373ffffffffffffffffffffffffffffffffffffffff1673ffffffffffffffffffffffffffffffffffffffff168152602001908152602001600020549050600160698281548110610591577f4e487b7100000000000000000000000000000000000000000000000000000000600052603260045260246000fd5b9060005260206000200160000160146101000a81548160ff0219169083151502179055506105bf89896121f5565b1561066157606560009054906101000a900473ffffffffffffffffffffffffffffffffffffffff1673ffffffffffffffffffffffffffffffffffffffff166328d1f35e8a8a60036040518463ffffffff1660e01b815260040161062493929190615104565b600060405180830381600087803b15801561063e57600080fd5b505af1158015610652573d6000803e3d6000fd5b505050506106608989612386565b5b505050505050505050565b610674612572565b73ffffffffffffffffffffffffffffffffffffffff16610692610d92565b73ffffffffffffffffffffffffffffffffffffffff16146106e8576040517f08c379a00000000000000000000000000000000000000000000000000000000081526004016106df906151d6565b60405180910390fd5b80606560006101000a81548173ffffffffffffffffffffffffffffffffffffffff021916908373ffffffffffffffffffffffffffffffffffffffff16021790555050565b6000606560009054906101000a900473ffffffffffffffffffffffffffffffffffffffff16905090565b85856003606560009054906101000a900473ffffffffffffffffffffffffffffffffffffffff1673ffffffffffffffffffffffffffffffffffffffff1663acdf47c18484846040518463ffffffff1660e01b81526004016107b993929190615104565b60206040518083038186803b1580156107d157600080fd5b505afa1580156107e5573d6000803e3d6000fd5b505050506040513d601f19601f820116820180604052508101906108099190614980565b610848576040517f08c379a000000000000000000000000000000000000000000000000000000000815260040161083f90615216565b60405180910390fd5b6108548989898961257a565b61086289898989898961294d565b61086c8989612bc1565b1561090e57606560009054906101000a900473ffffffffffffffffffffffffffffffffffffffff1673ffffffffffffffffffffffffffffffffffffffff166328d1f35e8a8a60046040518463ffffffff1660e01b81526004016108d193929190615104565b600060405180830381600087803b1580156108eb57600080fd5b505af11580156108ff573d6000803e3d6000fd5b5050505061090d8989612d56565b5b505050505050505050565b606082826004606560009054906101000a900473ffffffffffffffffffffffffffffffffffffffff1673ffffffffffffffffffffffffffffffffffffffff1663acdf47c18484846040518463ffffffff1660e01b815260040161097e93929190615104565b60206040518083038186803b15801561099657600080fd5b505afa1580156109aa573d6000803e3d6000fd5b505050506040513d601f19601f820116820180604052508101906109ce9190614980565b610a0d576040517f08c379a0000000000000000000000000000000000000000000000000000000008152600401610a0490615216565b60405180910390fd5b610a178686612eda565b935050505092915050565b6060606560009054906101000a900473ffffffffffffffffffffffffffffffffffffffff1673ffffffffffffffffffffffffffffffffffffffff163373ffffffffffffffffffffffffffffffffffffffff1614610ab4576040517f08c379a0000000000000000000000000000000000000000000000000000000008152600401610aab90615176565b60405180910390fd5b60008383905067ffffffffffffffff811115610af9577f4e487b7100000000000000000000000000000000000000000000000000000000600052604160045260246000fd5b604051908082528060200260200182016040528015610b275781602001602082028036833780820191505090505b50905060005b84849050811015610c6b576000858583818110610b73577f4e487b7100000000000000000000000000000000000000000000000000000000600052603260045260246000fd5b90506020020135905060698181548110610bb6577f4e487b7100000000000000000000000000000000000000000000000000000000600052603260045260246000fd5b9060005260206000200160000160009054906101000a900473ffffffffffffffffffffffffffffffffffffffff16838381518110610c1d577f4e487b7100000000000000000000000000000000000000000000000000000000600052603260045260246000fd5b602002602001019073ffffffffffffffffffffffffffffffffffffffff16908173ffffffffffffffffffffffffffffffffffffffff1681525050508080610c639061560a565b915050610b2d565b508091505092915050565b610c7e612572565b73ffffffffffffffffffffffffffffffffffffffff16610c9c610d92565b73ffffffffffffffffffffffffffffffffffffffff1614610cf2576040517f08c379a0000000000000000000000000000000000000000000000000000000008152600401610ce9906151d6565b60405180910390fd5b610cfc6000613a5d565b565b6000610d0a6001613b23565b90508015610d2e576001600060016101000a81548160ff0219169083151502179055505b610d36613c13565b8015610d8f5760008060016101000a81548160ff0219169083151502179055507f7f26b83ff96e1f2b6a682f133852f6798a09c465da95921460cefb38474024986001604051610d869190615053565b60405180910390a15b50565b6000603360009054906101000a900473ffffffffffffffffffffffffffffffffffffffff16905090565b81816001606560009054906101000a900473ffffffffffffffffffffffffffffffffffffffff1673ffffffffffffffffffffffffffffffffffffffff1663acdf47c18484846040518463ffffffff1660e01b8152600401610e1f93929190615104565b60206040518083038186803b158015610e3757600080fd5b505afa158015610e4b573d6000803e3d6000fd5b505050506040513d601f19601f82011682018060405250810190610e6f9190614980565b610eae576040517f08c379a0000000000000000000000000000000000000000000000000000000008152600401610ea590615216565b60405180910390fd5b848460006002811115610eea577f4e487b7100000000000000000000000000000000000000000000000000000000600052602160045260246000fd5b60668383604051610efc929190614fb9565b908152602001604051809103902060003373ffffffffffffffffffffffffffffffffffffffff1673ffffffffffffffffffffffffffffffffffffffff16815260200190815260200160002060009054906101000a900460ff166002811115610f8d577f4e487b7100000000000000000000000000000000000000000000000000000000600052602160045260246000fd5b14610fcd576040517f08c379a0000000000000000000000000000000000000000000000000000000008152600401610fc4906151b6565b60405180910390fd5b600160668888604051610fe1929190614fb9565b908152602001604051809103902060003373ffffffffffffffffffffffffffffffffffffffff1673ffffffffffffffffffffffffffffffffffffffff16815260200190815260200160002060006101000a81548160ff02191690836002811115611074577f4e487b7100000000000000000000000000000000000000000000000000000000600052602160045260246000fd5b0217905550600060698054905090508060678989604051611096929190614fb9565b908152602001604051809103902060003373ffffffffffffffffffffffffffffffffffffffff1673ffffffffffffffffffffffffffffffffffffffff168152602001908152602001600020819055506069600181600181540180825580915050039060005260206000205050336069828154811061113d577f4e487b7100000000000000000000000000000000000000000000000000000000600052603260045260246000fd5b9060005260206000200160000160006101000a81548173ffffffffffffffffffffffffffffffffffffffff021916908373ffffffffffffffffffffffffffffffffffffffff160217905550606560009054906101000a900473ffffffffffffffffffffffffffffffffffffffff1673ffffffffffffffffffffffffffffffffffffffff1663476cc8ab89896001856040518563ffffffff1660e01b81526004016111ea94939291906150c4565b600060405180830381600087803b15801561120457600080fd5b505af1158015611218573d6000803e3d6000fd5b505050505050505050505050565b81816001606560009054906101000a900473ffffffffffffffffffffffffffffffffffffffff1673ffffffffffffffffffffffffffffffffffffffff1663acdf47c18484846040518463ffffffff1660e01b815260040161128993929190615104565b60206040518083038186803b1580156112a157600080fd5b505afa1580156112b5573d6000803e3d6000fd5b505050506040513d601f19601f820116820180604052508101906112d99190614980565b611318576040517f08c379a000000000000000000000000000000000000000000000000000000000815260040161130f90615216565b60405180910390fd5b848460006002811115611354577f4e487b7100000000000000000000000000000000000000000000000000000000600052602160045260246000fd5b60668383604051611366929190614fb9565b908152602001604051809103902060003373ffffffffffffffffffffffffffffffffffffffff1673ffffffffffffffffffffffffffffffffffffffff16815260200190815260200160002060009054906101000a900460ff1660028111156113f7577f4e487b7100000000000000000000000000000000000000000000000000000000600052602160045260246000fd5b14611437576040517f08c379a000000000000000000000000000000000000000000000000000000000815260040161142e906151b6565b60405180910390fd5b60026066888860405161144b929190614fb9565b908152602001604051809103902060003373ffffffffffffffffffffffffffffffffffffffff1673ffffffffffffffffffffffffffffffffffffffff16815260200190815260200160002060006101000a81548160ff021916908360028111156114de577f4e487b7100000000000000000000000000000000000000000000000000000000600052602160045260246000fd5b0217905550600060688054905090508060678989604051611500929190614fb9565b908152602001604051809103902060003373ffffffffffffffffffffffffffffffffffffffff1673ffffffffffffffffffffffffffffffffffffffff1681526020019081526020016000208190555060686001816001815401808255809150500390600052602060002090505033606882815481106115a8577f4e487b7100000000000000000000000000000000000000000000000000000000600052603260045260246000fd5b906000526020600020906003020160000160006101000a81548173ffffffffffffffffffffffffffffffffffffffff021916908373ffffffffffffffffffffffffffffffffffffffff160217905550606560009054906101000a900473ffffffffffffffffffffffffffffffffffffffff1673ffffffffffffffffffffffffffffffffffffffff1663476cc8ab89896002856040518563ffffffff1660e01b815260040161165994939291906150c4565b600060405180830381600087803b15801561167357600080fd5b505af1158015611687573d6000803e3d6000fd5b505050505050505050505050565b606560009054906101000a900473ffffffffffffffffffffffffffffffffffffffff1673ffffffffffffffffffffffffffffffffffffffff163373ffffffffffffffffffffffffffffffffffffffff1614611725576040517f08c379a000000000000000000000000000000000000000000000000000000000815260040161171c90615176565b60405180910390fd5b60005b848490508110156117925761177f8787878785818110611771577f4e487b7100000000000000000000000000000000000000000000000000000000600052603260045260246000fd5b905060200201356001613c6c565b808061178a9061560a565b915050611728565b5060005b82829050811015611800576117ed87878585858181106117df577f4e487b7100000000000000000000000000000000000000000000000000000000600052603260045260246000fd5b905060200201356002613c6c565b80806117f89061560a565b915050611796565b50505050505050565b6060606560009054906101000a900473ffffffffffffffffffffffffffffffffffffffff1673ffffffffffffffffffffffffffffffffffffffff163373ffffffffffffffffffffffffffffffffffffffff161461189b576040517f08c379a000000000000000000000000000000000000000000000000000000000815260040161189290615176565b60405180910390fd5b60008383905067ffffffffffffffff8111156118e0577f4e487b7100000000000000000000000000000000000000000000000000000000600052604160045260246000fd5b60405190808252806020026020018201604052801561190e5781602001602082028036833780820191505090505b50905060005b84849050811015611a5657600085858381811061195a577f4e487b7100000000000000000000000000000000000000000000000000000000600052603260045260246000fd5b9050602002013590506068818154811061199d577f4e487b7100000000000000000000000000000000000000000000000000000000600052603260045260246000fd5b906000526020600020906003020160000160009054906101000a900473ffffffffffffffffffffffffffffffffffffffff16838381518110611a08577f4e487b7100000000000000000000000000000000000000000000000000000000600052603260045260246000fd5b602002602001019073ffffffffffffffffffffffffffffffffffffffff16908173ffffffffffffffffffffffffffffffffffffffff1681525050508080611a4e9061560a565b915050611914565b508091505092915050565b83836002806002811115611a9e577f4e487b7100000000000000000000000000000000000000000000000000000000600052602160045260246000fd5b60668484604051611ab0929190614fb9565b908152602001604051809103902060003373ffffffffffffffffffffffffffffffffffffffff1673ffffffffffffffffffffffffffffffffffffffff16815260200190815260200160002060009054906101000a900460ff166002811115611b41577f4e487b7100000000000000000000000000000000000000000000000000000000600052602160045260246000fd5b14611b81576040517f08c379a0000000000000000000000000000000000000000000000000000000008152600401611b7890615276565b60405180910390fd5b86866003606560009054906101000a900473ffffffffffffffffffffffffffffffffffffffff1673ffffffffffffffffffffffffffffffffffffffff1663acdf47c18484846040518463ffffffff1660e01b8152600401611be493929190615104565b60206040518083038186803b158015611bfc57600080fd5b505afa158015611c10573d6000803e3d6000fd5b505050506040513d601f19601f82011682018060405250810190611c349190614980565b611c73576040517f08c379a0000000000000000000000000000000000000000000000000000000008152600401611c6a90615216565b60405180910390fd5b611c7f8a8a8a8a61402f565b611c898a8a61411b565b15611d2557606560009054906101000a900473ffffffffffffffffffffffffffffffffffffffff1673ffffffffffffffffffffffffffffffffffffffff166328d1f35e8b8b60026040518463ffffffff1660e01b8152600401611cee93929190615104565b600060405180830381600087803b158015611d0857600080fd5b505af1158015611d1c573d6000803e3d6000fd5b50505050611dd2565b611d2f8a8a612bc1565b15611dd157606560009054906101000a900473ffffffffffffffffffffffffffffffffffffffff1673ffffffffffffffffffffffffffffffffffffffff166328d1f35e8b8b60046040518463ffffffff1660e01b8152600401611d9493929190615104565b600060405180830381600087803b158015611dae57600080fd5b505af1158015611dc2573d6000803e3d6000fd5b50505050611dd08a8a612d56565b5b5b50505050505050505050565b611de6612572565b73ffffffffffffffffffffffffffffffffffffffff16611e04610d92565b73ffffffffffffffffffffffffffffffffffffffff1614611e5a576040517f08c379a0000000000000000000000000000000000000000000000000000000008152600401611e51906151d6565b60405180910390fd5b600073ffffffffffffffffffffffffffffffffffffffff168173ffffffffffffffffffffffffffffffffffffffff161415611eca576040517f08c379a0000000000000000000000000000000000000000000000000000000008152600401611ec190615156565b60405180910390fd5b611ed381613a5d565b50565b81816001606560009054906101000a900473ffffffffffffffffffffffffffffffffffffffff1673ffffffffffffffffffffffffffffffffffffffff1663acdf47c18484846040518463ffffffff1660e01b8152600401611f3993929190615104565b60206040518083038186803b158015611f5157600080fd5b505afa158015611f65573d6000803e3d6000fd5b505050506040513d601f19601f82011682018060405250810190611f899190614980565b611fc8576040517f08c379a0000000000000000000000000000000000000000000000000000000008152600401611fbf90615216565b60405180910390fd5b600060668686604051611fdc929190614fb9565b908152602001604051809103902060003373ffffffffffffffffffffffffffffffffffffffff1673ffffffffffffffffffffffffffffffffffffffff16815260200190815260200160002060009054906101000a900460ff16905060006002811115612071577f4e487b7100000000000000000000000000000000000000000000000000000000600052602160045260246000fd5b8160028111156120aa577f4e487b7100000000000000000000000000000000000000000000000000000000600052602160045260246000fd5b14156120eb576040517f08c379a00000000000000000000000000000000000000000000000000000000081526004016120e290615256565b60405180910390fd5b6000606787876040516120ff929190614fb9565b908152602001604051809103902060003373ffffffffffffffffffffffffffffffffffffffff1673ffffffffffffffffffffffffffffffffffffffff168152602001908152602001600020549050606560009054906101000a900473ffffffffffffffffffffffffffffffffffffffff1673ffffffffffffffffffffffffffffffffffffffff16632ac46d81888885856040518563ffffffff1660e01b81526004016121ae94939291906150c4565b600060405180830381600087803b1580156121c857600080fd5b505af11580156121dc573d6000803e3d6000fd5b505050506121ec87878385613c6c565b50505050505050565b600080606560009054906101000a900473ffffffffffffffffffffffffffffffffffffffff1673ffffffffffffffffffffffffffffffffffffffff16635d5e697a858560016040518463ffffffff1660e01b815260040161225893929190615092565b60006040518083038186803b15801561227057600080fd5b505afa158015612284573d6000803e3d6000fd5b505050506040513d6000823e3d601f19601f820116820180604052508101906122ad919061493f565b905060005b81518110156123795760008282815181106122f6577f4e487b7100000000000000000000000000000000000000000000000000000000600052603260045260246000fd5b602002602001015190506069818154811061233a577f4e487b7100000000000000000000000000000000000000000000000000000000600052603260045260246000fd5b9060005260206000200160000160149054906101000a900460ff166123655760009350505050612380565b5080806123719061560a565b9150506122b2565b5060019150505b92915050565b6000606560009054906101000a900473ffffffffffffffffffffffffffffffffffffffff1673ffffffffffffffffffffffffffffffffffffffff16635d5e697a848460026040518463ffffffff1660e01b81526004016123e893929190615092565b60006040518083038186803b15801561240057600080fd5b505afa158015612414573d6000803e3d6000fd5b505050506040513d6000823e3d601f19601f8201168201806040525081019061243d919061493f565b905060005b815181101561256c576000828281518110612486577f4e487b7100000000000000000000000000000000000000000000000000000000600052603260045260246000fd5b602002602001015190506000606882815481106124cc577f4e487b7100000000000000000000000000000000000000000000000000000000600052603260045260246000fd5b906000526020600020906003020160020160016101000a81548160ff021916908315150217905550600060688281548110612530577f4e487b7100000000000000000000000000000000000000000000000000000000600052603260045260246000fd5b906000526020600020906003020160020160006101000a81548160ff0219169083151502179055505080806125649061560a565b915050612442565b50505050565b600033905090565b6000606560009054906101000a900473ffffffffffffffffffffffffffffffffffffffff1673ffffffffffffffffffffffffffffffffffffffff16635d5e697a868660016040518463ffffffff1660e01b81526004016125dc93929190615092565b60006040518083038186803b1580156125f457600080fd5b505afa158015612608573d6000803e3d6000fd5b505050506040513d6000823e3d601f19601f82011682018060405250810190612631919061493f565b90506000838390508251111561264a5781519050612651565b8383905090505b60005b848490508110156129445760008060678989604051612674929190614fb9565b908152602001604051809103902060008888868181106126bd577f4e487b7100000000000000000000000000000000000000000000000000000000600052603260045260246000fd5b90506020020160208101906126d29190614890565b73ffffffffffffffffffffffffffffffffffffffff1673ffffffffffffffffffffffffffffffffffffffff16815260200190815260200160002054905060005b8481101561292e57855181108015612728575082155b156127d557858181518110612766577f4e487b7100000000000000000000000000000000000000000000000000000000600052603260045260246000fd5b602002602001015182141561277a57600192505b6001865161278891906154bb565b81148015612794575082155b156127d4576040517f08c379a00000000000000000000000000000000000000000000000000000000081526004016127cb90615136565b60405180910390fd5b5b600181856127e391906153da565b6127ed91906153da565b88889050116127fb57600080fd5b87876001838761280b91906153da565b61281591906153da565b81811061284b577f4e487b7100000000000000000000000000000000000000000000000000000000600052603260045260246000fd5b90506020020160208101906128609190614890565b73ffffffffffffffffffffffffffffffffffffffff168888868181106128af577f4e487b7100000000000000000000000000000000000000000000000000000000600052603260045260246000fd5b90506020020160208101906128c49190614890565b73ffffffffffffffffffffffffffffffffffffffff16141561291b576040517f08c379a0000000000000000000000000000000000000000000000000000000008152600401612912906151f6565b60405180910390fd5b80806129269061560a565b915050612712565b505050808061293c9061560a565b915050612654565b50505050505050565b8585600280600281111561298a577f4e487b7100000000000000000000000000000000000000000000000000000000600052602160045260246000fd5b6066848460405161299c929190614fb9565b908152602001604051809103902060003373ffffffffffffffffffffffffffffffffffffffff1673ffffffffffffffffffffffffffffffffffffffff16815260200190815260200160002060009054906101000a900460ff166002811115612a2d577f4e487b7100000000000000000000000000000000000000000000000000000000600052602160045260246000fd5b14612a6d576040517f08c379a0000000000000000000000000000000000000000000000000000000008152600401612a6490615276565b60405180910390fd5b6000612a7a8a8a336142f8565b905060005b86869050811015612b97576000898983818110612ac5577f4e487b7100000000000000000000000000000000000000000000000000000000600052603260045260246000fd5b9050602002016020810190612ada9190614890565b90506000888884818110612b17577f4e487b7100000000000000000000000000000000000000000000000000000000600052603260045260246000fd5b9050602002013590506001811015612b2e57600190505b600a811115612b3c57600a90505b808460010160008473ffffffffffffffffffffffffffffffffffffffff1673ffffffffffffffffffffffffffffffffffffffff1681526020019081526020016000208190555050508080612b8f9061560a565b915050612a7f565b5060018160020160006101000a81548160ff02191690831515021790555050505050505050505050565b600080606560009054906101000a900473ffffffffffffffffffffffffffffffffffffffff1673ffffffffffffffffffffffffffffffffffffffff16635d5e697a858560026040518463ffffffff1660e01b8152600401612c2493929190615092565b60006040518083038186803b158015612c3c57600080fd5b505afa158015612c50573d6000803e3d6000fd5b505050506040513d6000823e3d601f19601f82011682018060405250810190612c79919061493f565b905060005b8151811015612d49576000828281518110612cc2577f4e487b7100000000000000000000000000000000000000000000000000000000600052603260045260246000fd5b6020026020010151905060688181548110612d06577f4e487b7100000000000000000000000000000000000000000000000000000000600052603260045260246000fd5b906000526020600020906003020160020160009054906101000a900460ff16612d355760009350505050612d50565b508080612d419061560a565b915050612c7e565b5060019150505b92915050565b6000606560009054906101000a900473ffffffffffffffffffffffffffffffffffffffff1673ffffffffffffffffffffffffffffffffffffffff16635d5e697a848460016040518463ffffffff1660e01b8152600401612db893929190615092565b60006040518083038186803b158015612dd057600080fd5b505afa158015612de4573d6000803e3d6000fd5b505050506040513d6000823e3d601f19601f82011682018060405250810190612e0d919061493f565b905060005b8151811015612ed4576000828281518110612e56577f4e487b7100000000000000000000000000000000000000000000000000000000600052603260045260246000fd5b60200260200101519050600160698281548110612e9c577f4e487b7100000000000000000000000000000000000000000000000000000000600052603260045260246000fd5b9060005260206000200160000160146101000a81548160ff021916908315150217905550508080612ecc9061560a565b915050612e12565b50505050565b6060612ee46144e2565b6000606560009054906101000a900473ffffffffffffffffffffffffffffffffffffffff1673ffffffffffffffffffffffffffffffffffffffff1663bcd5af0e86866040518363ffffffff1660e01b8152600401612f4392919061506e565b60006040518083038186803b158015612f5b57600080fd5b505afa158015612f6f573d6000803e3d6000fd5b505050506040513d6000823e3d601f19601f82011682018060405250810190612f989190614bab565b90508060400151826000018190525080606001515167ffffffffffffffff811115612fec577f4e487b7100000000000000000000000000000000000000000000000000000000600052604160045260246000fd5b60405190808252806020026020018201604052801561302557816020015b61301261452e565b81526020019060019003908161300a5790505b508260200181905250600082602001515183600001515161304691906153da565b67ffffffffffffffff811115613085577f4e487b7100000000000000000000000000000000000000000000000000000000600052604160045260246000fd5b6040519080825280602002602001820160405280156130be57816020015b6130ab61455e565b8152602001906001900390816130a35790505b5090503073ffffffffffffffffffffffffffffffffffffffff16635ec26c1f83606001516040518263ffffffff1660e01b81526004016130fe9190615031565b60006040518083038186803b15801561311657600080fd5b505afa15801561312a573d6000803e3d6000fd5b505050506040513d6000823e3d601f19601f8201168201806040525081019061315391906148b9565b83606001819052506064826020015183600001516131719190615461565b61317b9190615653565b8360800181815250506000836080015114156131bf576064826020015183600001516131a79190615461565b6131b19190615430565b8360a0018181525050613204565b600160648460800151846020015185600001516131dc9190615461565b6131e691906154bb565b6131f09190615430565b6131fa91906153da565b8360a00181815250505b8260000151518360a001516132199190615653565b8360c00181815250508260000151518360c001518460a0015161323c91906154bb565b6132469190615430565b8360e001818152505060005b836060015151811015613332578360600151818151811061329c577f4e487b7100000000000000000000000000000000000000000000000000000000600052603260045260246000fd5b6020026020010151846020015182815181106132e1577f4e487b7100000000000000000000000000000000000000000000000000000000600052603260045260246000fd5b60200260200101516000019073ffffffffffffffffffffffffffffffffffffffff16908173ffffffffffffffffffffffffffffffffffffffff1681525050808061332a9061560a565b915050613252565b5060005b83600001515181101561374257600084600001518281518110613382577f4e487b7100000000000000000000000000000000000000000000000000000000600052603260045260246000fd5b6020026020010151905060005b856020015151811015613583576000866020015182815181106133db577f4e487b7100000000000000000000000000000000000000000000000000000000600052603260045260246000fd5b602002602001015160000151905060688381548110613423577f4e487b7100000000000000000000000000000000000000000000000000000000600052603260045260246000fd5b906000526020600020906003020160010160008273ffffffffffffffffffffffffffffffffffffffff1673ffffffffffffffffffffffffffffffffffffffff16815260200190815260200160002054876020015183815181106134af577f4e487b7100000000000000000000000000000000000000000000000000000000600052603260045260246000fd5b60200260200101516020018181516134c791906153da565b9150818152505060688381548110613508577f4e487b7100000000000000000000000000000000000000000000000000000000600052603260045260246000fd5b906000526020600020906003020160010160008273ffffffffffffffffffffffffffffffffffffffff1673ffffffffffffffffffffffffffffffffffffffff168152602001908152602001600020548760400181815161356891906153da565b9150818152505050808061357b9061560a565b91505061338f565b50606882815481106135be577f4e487b7100000000000000000000000000000000000000000000000000000000600052603260045260246000fd5b906000526020600020906003020160000160009054906101000a900473ffffffffffffffffffffffffffffffffffffffff16838381518110613629577f4e487b7100000000000000000000000000000000000000000000000000000000600052603260045260246000fd5b60200260200101516000019073ffffffffffffffffffffffffffffffffffffffff16908173ffffffffffffffffffffffffffffffffffffffff16815250508460e001518383815181106136a5577f4e487b7100000000000000000000000000000000000000000000000000000000600052603260045260246000fd5b6020026020010151602001818152505060008560c001511461372e578282815181106136fa577f4e487b7100000000000000000000000000000000000000000000000000000000600052603260045260246000fd5b602002602001015160200180518091906137139061560a565b815250508460c0018051809190613729906155af565b815250505b50808061373a9061560a565b915050613336565b5081600001518361010001818152505060005b83602001515181101561399c5760008460400151856020015183815181106137a6577f4e487b7100000000000000000000000000000000000000000000000000000000600052603260045260246000fd5b60200260200101516020015185600001516137c19190615461565b6137cb9190615653565b9050600085604001518287602001518581518110613812577f4e487b7100000000000000000000000000000000000000000000000000000000600052603260045260246000fd5b602002602001015160200151876000015161382d9190615461565b61383791906154bb565b6138419190615430565b905085602001518381518110613880577f4e487b7100000000000000000000000000000000000000000000000000000000600052603260045260246000fd5b602002602001015160000151848488600001515161389e91906153da565b815181106138d5577f4e487b7100000000000000000000000000000000000000000000000000000000600052603260045260246000fd5b60200260200101516000019073ffffffffffffffffffffffffffffffffffffffff16908173ffffffffffffffffffffffffffffffffffffffff168152505080848488600001515161392691906153da565b8151811061395d577f4e487b7100000000000000000000000000000000000000000000000000000000600052603260045260246000fd5b6020026020010151602001818152505080866101000181815161398091906154bb565b91508181525050505080806139949061560a565b915050613755565b5060005b60008461010001511115613a50578360200151518114156139c057600090505b81818560000151516139d291906153da565b81518110613a09577f4e487b7100000000000000000000000000000000000000000000000000000000600052603260045260246000fd5b60200260200101516020018051809190613a229061560a565b8152505083610100018051809190613a39906155af565b815250508080613a489061560a565b9150506139a0565b5080935050505092915050565b6000603360009054906101000a900473ffffffffffffffffffffffffffffffffffffffff16905081603360006101000a81548173ffffffffffffffffffffffffffffffffffffffff021916908373ffffffffffffffffffffffffffffffffffffffff1602179055508173ffffffffffffffffffffffffffffffffffffffff168173ffffffffffffffffffffffffffffffffffffffff167f8be0079c531659141344cd1fd0a4f28419497f9722a3daafe3b4186f6b6457e060405160405180910390a35050565b60008060019054906101000a900460ff1615613b9a5760018260ff16148015613b525750613b50306143ad565b155b613b91576040517f08c379a0000000000000000000000000000000000000000000000000000000008152600401613b8890615196565b60405180910390fd5b60009050613c0e565b8160ff1660008054906101000a900460ff1660ff1610613bef576040517f08c379a0000000000000000000000000000000000000000000000000000000008152600401613be690615196565b60405180910390fd5b816000806101000a81548160ff021916908360ff160217905550600190505b919050565b600060019054906101000a900460ff16613c62576040517f08c379a0000000000000000000000000000000000000000000000000000000008152600401613c5990615236565b60405180910390fd5b613c6a6143d0565b565b600060016002811115613ca8577f4e487b7100000000000000000000000000000000000000000000000000000000600052602160045260246000fd5b826002811115613ce1577f4e487b7100000000000000000000000000000000000000000000000000000000600052602160045260246000fd5b1415613dd85760698381548110613d21577f4e487b7100000000000000000000000000000000000000000000000000000000600052603260045260246000fd5b9060005260206000200160000160009054906101000a900473ffffffffffffffffffffffffffffffffffffffff16905060698381548110613d8b577f4e487b7100000000000000000000000000000000000000000000000000000000600052603260045260246000fd5b90600052602060002001600080820160006101000a81549073ffffffffffffffffffffffffffffffffffffffff02191690556000820160146101000a81549060ff02191690555050613f5a565b600280811115613e11577f4e487b7100000000000000000000000000000000000000000000000000000000600052602160045260246000fd5b826002811115613e4a577f4e487b7100000000000000000000000000000000000000000000000000000000600052602160045260246000fd5b1415613f595760688381548110613e8a577f4e487b7100000000000000000000000000000000000000000000000000000000600052603260045260246000fd5b906000526020600020906003020160000160009054906101000a900473ffffffffffffffffffffffffffffffffffffffff16905060688381548110613ef8577f4e487b7100000000000000000000000000000000000000000000000000000000600052603260045260246000fd5b9060005260206000209060030201600080820160006101000a81549073ffffffffffffffffffffffffffffffffffffffff02191690556002820160006101000a81549060ff02191690556002820160016101000a81549060ff021916905550505b5b60678585604051613f6c929190614fb9565b908152602001604051809103902060008273ffffffffffffffffffffffffffffffffffffffff1673ffffffffffffffffffffffffffffffffffffffff1681526020019081526020016000206000905560668585604051613fcd929190614fb9565b908152602001604051809103902060008273ffffffffffffffffffffffffffffffffffffffff1673ffffffffffffffffffffffffffffffffffffffff16815260200190815260200160002060006101000a81549060ff02191690555050505050565b60005b828290508110156140ca576000614097868686868681811061407d577f4e487b7100000000000000000000000000000000000000000000000000000000600052603260045260246000fd5b90506020020160208101906140929190614890565b614431565b905060008160000160146101000a81548160ff0219169083151502179055505080806140c29061560a565b915050614032565b5060006140d88585336142f8565b905060018160020160006101000a81548160ff02191690831515021790555060018160020160016101000a81548160ff0219169083151502179055505050505050565b600080606560009054906101000a900473ffffffffffffffffffffffffffffffffffffffff1673ffffffffffffffffffffffffffffffffffffffff16635d5e697a858560026040518463ffffffff1660e01b815260040161417e93929190615092565b60006040518083038186803b15801561419657600080fd5b505afa1580156141aa573d6000803e3d6000fd5b505050506040513d6000823e3d601f19601f820116820180604052508101906141d3919061493f565b90506000600282516141e59190615653565b9050600080600090505b83518110156142be576000848281518110614233577f4e487b7100000000000000000000000000000000000000000000000000000000600052603260045260246000fd5b6020026020010151905060688181548110614277577f4e487b7100000000000000000000000000000000000000000000000000000000600052603260045260246000fd5b906000526020600020906003020160020160019054906101000a900460ff16156142aa5782806142a69061560a565b9350505b5080806142b69061560a565b9150506141ef565b5060028284516142ce91906153da565b6142d89190615430565b81106142ea57600193505050506142f2565b600093505050505b92915050565b6000806067858560405161430d929190614fb9565b908152602001604051809103902060008473ffffffffffffffffffffffffffffffffffffffff1673ffffffffffffffffffffffffffffffffffffffff16815260200190815260200160002054905060688181548110614395577f4e487b7100000000000000000000000000000000000000000000000000000000600052603260045260246000fd5b90600052602060002090600302019150509392505050565b6000808273ffffffffffffffffffffffffffffffffffffffff163b119050919050565b600060019054906101000a900460ff1661441f576040517f08c379a000000000000000000000000000000000000000000000000000000000815260040161441690615236565b60405180910390fd5b61442f61442a612572565b613a5d565b565b60008060678585604051614446929190614fb9565b908152602001604051809103902060008473ffffffffffffffffffffffffffffffffffffffff1673ffffffffffffffffffffffffffffffffffffffff168152602001908152602001600020549050606981815481106144ce577f4e487b7100000000000000000000000000000000000000000000000000000000600052603260045260246000fd5b906000526020600020019150509392505050565b6040518061012001604052806060815260200160608152602001600081526020016060815260200160008152602001600081526020016000815260200160008152602001600081525090565b6040518060400160405280600073ffffffffffffffffffffffffffffffffffffffff168152602001600081525090565b6040518060400160405280600073ffffffffffffffffffffffffffffffffffffffff168152602001600081525090565b60006145a161459c846152bb565b615296565b905080838252602082019050828560208602820111156145c057600080fd5b60005b858110156145f057816145d6888261467b565b8452602084019350602083019250506001810190506145c3565b5050509392505050565b600061460d614608846152e7565b615296565b9050808382526020820190508285602086028201111561462c57600080fd5b60005b8581101561465c5781614642888261487b565b84526020840193506020830192505060018101905061462f565b5050509392505050565b60008135905061467581615a92565b92915050565b60008151905061468a81615a92565b92915050565b60008083601f8401126146a257600080fd5b8235905067ffffffffffffffff8111156146bb57600080fd5b6020830191508360208202830111156146d357600080fd5b9250929050565b600082601f8301126146eb57600080fd5b81516146fb84826020860161458e565b91505092915050565b60008083601f84011261471657600080fd5b8235905067ffffffffffffffff81111561472f57600080fd5b60208301915083602082028301111561474757600080fd5b9250929050565b600082601f83011261475f57600080fd5b815161476f8482602086016145fa565b91505092915050565b60008151905061478781615aa9565b92915050565b60008083601f84011261479f57600080fd5b8235905067ffffffffffffffff8111156147b857600080fd5b6020830191508360018202830111156147d057600080fd5b9250929050565b6000608082840312156147e957600080fd5b6147f36080615296565b905060006148038482850161487b565b60008301525060206148178482850161487b565b602083015250604082015167ffffffffffffffff81111561483757600080fd5b6148438482850161474e565b604083015250606082015167ffffffffffffffff81111561486357600080fd5b61486f8482850161474e565b60608301525092915050565b60008151905061488a81615ac0565b92915050565b6000602082840312156148a257600080fd5b60006148b084828501614666565b91505092915050565b6000602082840312156148cb57600080fd5b600082015167ffffffffffffffff8111156148e557600080fd5b6148f1848285016146da565b91505092915050565b6000806020838503121561490d57600080fd5b600083013567ffffffffffffffff81111561492757600080fd5b61493385828601614704565b92509250509250929050565b60006020828403121561495157600080fd5b600082015167ffffffffffffffff81111561496b57600080fd5b6149778482850161474e565b91505092915050565b60006020828403121561499257600080fd5b60006149a084828501614778565b91505092915050565b600080602083850312156149bc57600080fd5b600083013567ffffffffffffffff8111156149d657600080fd5b6149e28582860161478d565b92509250509250929050565b60008060008060408587031215614a0457600080fd5b600085013567ffffffffffffffff811115614a1e57600080fd5b614a2a8782880161478d565b9450945050602085013567ffffffffffffffff811115614a4957600080fd5b614a5587828801614690565b925092505092959194509250565b60008060008060008060608789031215614a7c57600080fd5b600087013567ffffffffffffffff811115614a9657600080fd5b614aa289828a0161478d565b9650965050602087013567ffffffffffffffff811115614ac157600080fd5b614acd89828a01614690565b9450945050604087013567ffffffffffffffff811115614aec57600080fd5b614af889828a01614704565b92509250509295509295509295565b60008060008060008060608789031215614b2057600080fd5b600087013567ffffffffffffffff811115614b3a57600080fd5b614b4689828a0161478d565b9650965050602087013567ffffffffffffffff811115614b6557600080fd5b614b7189828a01614704565b9450945050604087013567ffffffffffffffff811115614b9057600080fd5b614b9c89828a01614704565b92509250509295509295509295565b600060208284031215614bbd57600080fd5b600082015167ffffffffffffffff811115614bd757600080fd5b614be3848285016147d7565b91505092915050565b6000614bf88383614c34565b60208301905092915050565b6000614c108383614f6c565b60408301905092915050565b6000614c288383614f9b565b60208301905092915050565b614c3d816154ef565b82525050565b614c4c816154ef565b82525050565b6000614c5d82615343565b614c67818561538b565b9350614c7283615313565b8060005b83811015614ca3578151614c8a8882614bec565b9750614c9583615364565b925050600181019050614c76565b5085935050505092915050565b6000614cbb8261534e565b614cc5818561539c565b9350614cd083615323565b8060005b83811015614d01578151614ce88882614c04565b9750614cf383615371565b925050600181019050614cd4565b5085935050505092915050565b6000614d1982615359565b614d2381856153ad565b9350614d2e83615333565b8060005b83811015614d5f578151614d468882614c1c565b9750614d518361537e565b925050600181019050614d32565b5085935050505092915050565b614d758161556a565b82525050565b614d848161557c565b82525050565b614d938161558e565b82525050565b6000614da583856153be565b9350614db28385846155a0565b614dbb83615740565b840190509392505050565b6000614dd283856153cf565b9350614ddf8385846155a0565b82840190509392505050565b6000614df86050836153be565b9150614e0382615751565b606082019050919050565b6000614e1b6026836153be565b9150614e26826157c6565b604082019050919050565b6000614e3e601e836153be565b9150614e4982615815565b602082019050919050565b6000614e61602e836153be565b9150614e6c8261583e565b604082019050919050565b6000614e84602b836153be565b9150614e8f8261588d565b604082019050919050565b6000614ea76020836153be565b9150614eb2826158dc565b602082019050919050565b6000614eca6038836153be565b9150614ed582615905565b604082019050919050565b6000614eed602e836153be565b9150614ef882615954565b604082019050919050565b6000614f10602b836153be565b9150614f1b826159a3565b604082019050919050565b6000614f336027836153be565b9150614f3e826159f2565b604082019050919050565b6000614f566020836153be565b9150614f6182615a41565b602082019050919050565b604082016000820151614f826000850182614c34565b506020820151614f956020850182614f9b565b50505050565b614fa481615553565b82525050565b614fb381615553565b82525050565b6000614fc6828486614dc6565b91508190509392505050565b6000602082019050614fe76000830184614c43565b92915050565b600060208201905081810360008301526150078184614c52565b905092915050565b600060208201905081810360008301526150298184614cb0565b905092915050565b6000602082019050818103600083015261504b8184614d0e565b905092915050565b60006020820190506150686000830184614d8a565b92915050565b60006020820190508181036000830152615089818486614d99565b90509392505050565b600060408201905081810360008301526150ad818587614d99565b90506150bc6020830184614d6c565b949350505050565b600060608201905081810360008301526150df818688614d99565b90506150ee6020830185614d6c565b6150fb6040830184614faa565b95945050505050565b6000604082019050818103600083015261511f818587614d99565b905061512e6020830184614d7b565b949350505050565b6000602082019050818103600083015261514f81614deb565b9050919050565b6000602082019050818103600083015261516f81614e0e565b9050919050565b6000602082019050818103600083015261518f81614e31565b9050919050565b600060208201905081810360008301526151af81614e54565b9050919050565b600060208201905081810360008301526151cf81614e77565b9050919050565b600060208201905081810360008301526151ef81614e9a565b9050919050565b6000602082019050818103600083015261520f81614ebd565b9050919050565b6000602082019050818103600083015261522f81614ee0565b9050919050565b6000602082019050818103600083015261524f81614f03565b9050919050565b6000602082019050818103600083015261526f81614f26565b9050919050565b6000602082019050818103600083015261528f81614f49565b9050919050565b60006152a06152b1565b90506152ac82826155d9565b919050565b6000604051905090565b600067ffffffffffffffff8211156152d6576152d5615711565b5b602082029050602081019050919050565b600067ffffffffffffffff82111561530257615301615711565b5b602082029050602081019050919050565b6000819050602082019050919050565b6000819050602082019050919050565b6000819050602082019050919050565b600081519050919050565b600081519050919050565b600081519050919050565b6000602082019050919050565b6000602082019050919050565b6000602082019050919050565b600082825260208201905092915050565b600082825260208201905092915050565b600082825260208201905092915050565b600082825260208201905092915050565b600081905092915050565b60006153e582615553565b91506153f083615553565b9250827fffffffffffffffffffffffffffffffffffffffffffffffffffffffffffffffff0382111561542557615424615684565b5b828201905092915050565b600061543b82615553565b915061544683615553565b925082615456576154556156b3565b5b828204905092915050565b600061546c82615553565b915061547783615553565b9250817fffffffffffffffffffffffffffffffffffffffffffffffffffffffffffffffff04831182151516156154b0576154af615684565b5b828202905092915050565b60006154c682615553565b91506154d183615553565b9250828210156154e4576154e3615684565b5b828203905092915050565b60006154fa82615533565b9050919050565b60008115159050919050565b600081905061551b82615a6a565b919050565b600081905061552e82615a7e565b919050565b600073ffffffffffffffffffffffffffffffffffffffff82169050919050565b6000819050919050565b600060ff82169050919050565b60006155758261550d565b9050919050565b600061558782615520565b9050919050565b60006155998261555d565b9050919050565b82818337600083830152505050565b60006155ba82615553565b915060008214156155ce576155cd615684565b5b600182039050919050565b6155e282615740565b810181811067ffffffffffffffff8211171561560157615600615711565b5b80604052505050565b600061561582615553565b91507fffffffffffffffffffffffffffffffffffffffffffffffffffffffffffffffff82141561564857615647615684565b5b600182019050919050565b600061565e82615553565b915061566983615553565b925082615679576156786156b3565b5b828206905092915050565b7f4e487b7100000000000000000000000000000000000000000000000000000000600052601160045260246000fd5b7f4e487b7100000000000000000000000000000000000000000000000000000000600052601260045260246000fd5b7f4e487b7100000000000000000000000000000000000000000000000000000000600052602160045260246000fd5b7f4e487b7100000000000000000000000000000000000000000000000000000000600052604160045260246000fd5b6000601f19601f8301169050919050565b7f596f752061726520747279696e6720746f206772616465206120706572736f6e60008201527f2c2077686f20776173206e6f742061737369676e6564206173206120576f726b60208201527f657220666f722074686973207461736b00000000000000000000000000000000604082015250565b7f4f776e61626c653a206e6577206f776e657220697320746865207a65726f206160008201527f6464726573730000000000000000000000000000000000000000000000000000602082015250565b7f596f7520617265206e6f7420616c6c6f77656420746f20646f20746861740000600082015250565b7f496e697469616c697a61626c653a20636f6e747261637420697320616c72656160008201527f647920696e697469616c697a6564000000000000000000000000000000000000602082015250565b7f596f75206861766520616c7265616479206265656e2061737369676e6564207460008201527f6f2074686973207461736b000000000000000000000000000000000000000000602082015250565b7f4f776e61626c653a2063616c6c6572206973206e6f7420746865206f776e6572600082015250565b7f596f752063616e206e6f742068617665206d6f7265207468616e20312072657660008201527f6965777320666f7220612073696e676c6520776f726b65720000000000000000602082015250565b7f596f752063616e277420646f207468697320616374696f6e206174206375727260008201527f656e74205461736b207374616765000000000000000000000000000000000000602082015250565b7f496e697469616c697a61626c653a20636f6e7472616374206973206e6f74206960008201527f6e697469616c697a696e67000000000000000000000000000000000000000000602082015250565b7f596f752068617665206e6f74206265656e2061737369676e656420746f20746860008201527f6973207461736b00000000000000000000000000000000000000000000000000602082015250565b7f596f7520646f6e277420686176652072696768747320746f20646f2074686174600082015250565b60038110615a7b57615a7a6156e2565b5b50565b60058110615a8f57615a8e6156e2565b5b50565b615a9b816154ef565b8114615aa657600080fd5b50565b615ab281615501565b8114615abd57600080fd5b50565b615ac981615553565b8114615ad457600080fd5b5056fea26469706673582212207c6721242e944b85935aaf43975f52185cfb7bccc499a9fa7c9d62200cc1e65b64736f6c63430008040033",
  "linkReferences": {},
  "deployedLinkReferences": {}
}