{
  "_format": "hh-sol-artifact-1",
  "contractName": "TaskManager",
  "sourceName": "contracts/TaskManager.sol",
  "abi": [
    {
      "anonymous": false,
      "inputs": [
        {
          "indexed": false,
          "internalType": "uint8",
          "name": "version",
          "type": "uint8"
        }
      ],
      "name": "Initialized",
      "type": "event"
    },
    {
      "anonymous": false,
      "inputs": [
        {
          "indexed": true,
          "internalType": "address",
          "name": "previousOwner",
          "type": "address"
        },
        {
          "indexed": true,
          "internalType": "address",
          "name": "newOwner",
          "type": "address"
        }
      ],
      "name": "OwnershipTransferred",
      "type": "event"
    },
    {
      "inputs": [
        {
          "internalType": "string",
          "name": "id",
          "type": "string"
        },
        {
          "internalType": "enum SharedTypes.TaskRole",
          "name": "role",
          "type": "uint8"
        },
        {
          "internalType": "uint256",
          "name": "index",
          "type": "uint256"
        }
      ],
      "name": "addMemberIndex",
      "outputs": [],
      "stateMutability": "nonpayable",
      "type": "function"
    },
    {
      "inputs": [
        {
          "internalType": "string",
          "name": "id",
          "type": "string"
        }
      ],
      "name": "beginTask",
      "outputs": [],
      "stateMutability": "nonpayable",
      "type": "function"
    },
    {
      "inputs": [
        {
          "internalType": "string",
          "name": "id",
          "type": "string"
        },
        {
          "internalType": "enum SharedTypes.TaskStatus",
          "name": "status",
          "type": "uint8"
        }
      ],
      "name": "changeStatus",
      "outputs": [],
      "stateMutability": "nonpayable",
      "type": "function"
    },
    {
      "inputs": [
        {
          "internalType": "string",
          "name": "id",
          "type": "string"
        },
        {
          "internalType": "enum SharedTypes.TaskStatus",
          "name": "status",
          "type": "uint8"
        }
      ],
      "name": "checkTaskStatus",
      "outputs": [
        {
          "internalType": "bool",
          "name": "",
          "type": "bool"
        }
      ],
      "stateMutability": "view",
      "type": "function"
    },
    {
      "inputs": [
        {
          "internalType": "address",
          "name": "daoContract",
          "type": "address"
        },
        {
          "internalType": "string",
          "name": "id",
          "type": "string"
        },
        {
          "internalType": "uint256",
          "name": "prize",
          "type": "uint256"
        },
        {
          "internalType": "uint256",
          "name": "percentageForReviewers",
          "type": "uint256"
        }
      ],
      "name": "createTask",
      "outputs": [],
      "stateMutability": "nonpayable",
      "type": "function"
    },
    {
      "inputs": [
        {
          "internalType": "address",
          "name": "daoContract",
          "type": "address"
        }
      ],
      "name": "getAllDaoTasks",
      "outputs": [
        {
          "internalType": "string[]",
          "name": "",
          "type": "string[]"
        }
      ],
      "stateMutability": "view",
      "type": "function"
    },
    {
      "inputs": [
        {
          "internalType": "string",
          "name": "id",
          "type": "string"
        },
        {
          "internalType": "enum SharedTypes.TaskRole",
          "name": "role",
          "type": "uint8"
        }
      ],
      "name": "getMemberIndexes",
      "outputs": [
        {
          "internalType": "uint256[]",
          "name": "",
          "type": "uint256[]"
        }
      ],
      "stateMutability": "view",
      "type": "function"
    },
    {
      "inputs": [
        {
          "internalType": "string",
          "name": "id",
          "type": "string"
        }
      ],
      "name": "getTask",
      "outputs": [
        {
          "components": [
            {
              "internalType": "string",
              "name": "id",
              "type": "string"
            },
            {
              "internalType": "address",
              "name": "daoContract",
              "type": "address"
            },
            {
              "internalType": "address",
              "name": "taskOwner",
              "type": "address"
            },
            {
              "internalType": "uint256",
              "name": "prize",
              "type": "uint256"
            },
            {
              "internalType": "uint256",
              "name": "percentageForReviewers",
              "type": "uint256"
            },
            {
              "internalType": "enum SharedTypes.TaskStatus",
              "name": "status",
              "type": "uint8"
            }
          ],
          "internalType": "struct TaskManager.TaskToGet",
          "name": "",
          "type": "tuple"
        },
        {
          "internalType": "address[]",
          "name": "",
          "type": "address[]"
        },
        {
          "internalType": "address[]",
          "name": "",
          "type": "address[]"
        }
      ],
      "stateMutability": "view",
      "type": "function"
    },
    {
      "inputs": [
        {
          "internalType": "string",
          "name": "id",
          "type": "string"
        }
      ],
      "name": "getTaskDataForCalculation",
      "outputs": [
        {
          "components": [
            {
              "internalType": "uint256",
              "name": "prize",
              "type": "uint256"
            },
            {
              "internalType": "uint256",
              "name": "percentageForReviewers",
              "type": "uint256"
            },
            {
              "internalType": "uint256[]",
              "name": "reviewersIndexes",
              "type": "uint256[]"
            },
            {
              "internalType": "uint256[]",
              "name": "workersIndexes",
              "type": "uint256[]"
            }
          ],
          "internalType": "struct SharedTypes.TaskDataForCalculation",
          "name": "",
          "type": "tuple"
        }
      ],
      "stateMutability": "view",
      "type": "function"
    },
    {
      "inputs": [],
      "name": "getTaskMemberProxy",
      "outputs": [
        {
          "internalType": "address",
          "name": "",
          "type": "address"
        }
      ],
      "stateMutability": "view",
      "type": "function"
    },
    {
      "inputs": [],
      "name": "initialize",
      "outputs": [],
      "stateMutability": "nonpayable",
      "type": "function"
    },
    {
      "inputs": [],
      "name": "owner",
      "outputs": [
        {
          "internalType": "address",
          "name": "",
          "type": "address"
        }
      ],
      "stateMutability": "view",
      "type": "function"
    },
    {
      "inputs": [
        {
          "internalType": "string",
          "name": "id",
          "type": "string"
        },
        {
          "internalType": "enum SharedTypes.TaskRole",
          "name": "role",
          "type": "uint8"
        },
        {
          "internalType": "uint256",
          "name": "index",
          "type": "uint256"
        }
      ],
      "name": "removeMember",
      "outputs": [],
      "stateMutability": "nonpayable",
      "type": "function"
    },
    {
      "inputs": [
        {
          "internalType": "string",
          "name": "id",
          "type": "string"
        }
      ],
      "name": "removeTask",
      "outputs": [],
      "stateMutability": "nonpayable",
      "type": "function"
    },
    {
      "inputs": [],
      "name": "renounceOwnership",
      "outputs": [],
      "stateMutability": "nonpayable",
      "type": "function"
    },
    {
      "inputs": [
        {
          "internalType": "address",
          "name": "_taskMemberProxy",
          "type": "address"
        }
      ],
      "name": "setTaskMemberProxy",
      "outputs": [],
      "stateMutability": "nonpayable",
      "type": "function"
    },
    {
      "inputs": [
        {
          "internalType": "address",
          "name": "newOwner",
          "type": "address"
        }
      ],
      "name": "transferOwnership",
      "outputs": [],
      "stateMutability": "nonpayable",
      "type": "function"
    }
  ],
  "bytecode": "0x608060405234801561001057600080fd5b50614451806100206000396000f3fe608060405234801561001057600080fd5b506004361061010a5760003560e01c80635d5e697a116100a2578063a6bc250611610071578063a6bc250614610267578063acdf47c114610297578063b4e03175146102c7578063bcd5af0e146102e5578063f2fde38b146103155761010a565b80635d5e697a14610205578063715018a6146102355780638129fc1c1461023f5780638da5cb5b146102495761010a565b80632ac46d81116100de5780632ac46d811461017f5780633c7777fb1461019b5780634240803d146101b7578063476cc8ab146101e95761010a565b806238e2c41461010f5780630da8073d1461012b57806324b701861461014757806328d1f35e14610163575b600080fd5b61012960048036038101906101249190613120565b610331565b005b6101456004803603810190610140919061320a565b6103f1565b005b610161600480360381019061015c919061320a565b610a55565b005b61017d60048036038101906101789190613313565b610dfa565b005b610199600480360381019061019491906132a7565b610f00565b005b6101b560048036038101906101b09190613149565b611380565b005b6101d160048036038101906101cc919061320a565b611661565b6040516101e093929190613c37565b60405180910390f35b61020360048036038101906101fe91906132a7565b611b60565b005b61021f600480360381019061021a919061324f565b611f4f565b60405161022c9190613a0d565b60405180910390f35b61023d6121ce565b005b610247612256565b005b6102516122ea565b60405161025e91906139d0565b60405180910390f35b610281600480360381019061027c9190613120565b612314565b60405161028e91906139eb565b60405180910390f35b6102b160048036038101906102ac9190613313565b61259a565b6040516102be9190613a51565b60405180910390f35b6102cf612803565b6040516102dc91906139d0565b60405180910390f35b6102ff60048036038101906102fa919061320a565b61282d565b60405161030c9190613c15565b60405180910390f35b61032f600480360381019061032a9190613120565b612a25565b005b610339612b1d565b73ffffffffffffffffffffffffffffffffffffffff166103576122ea565b73ffffffffffffffffffffffffffffffffffffffff16146103ad576040517f08c379a00000000000000000000000000000000000000000000000000000000081526004016103a490613b95565b60405180910390fd5b80606560006101000a81548173ffffffffffffffffffffffffffffffffffffffff021916908373ffffffffffffffffffffffffffffffffffffffff16021790555050565b81813373ffffffffffffffffffffffffffffffffffffffff166066838360405161041c929190613989565b908152602001604051809103902060020160009054906101000a900473ffffffffffffffffffffffffffffffffffffffff1673ffffffffffffffffffffffffffffffffffffffff16146104a4576040517f08c379a000000000000000000000000000000000000000000000000000000000815260040161049b90613b55565b60405180910390fd5b83836001600060048111156104e2577f4e487b7100000000000000000000000000000000000000000000000000000000600052602160045260246000fd5b606684846040516104f4929190613989565b908152602001604051809103902060070160009054906101000a900460ff16600481111561054b577f4e487b7100000000000000000000000000000000000000000000000000000000600052602160045260246000fd5b141561058c576040517f08c379a000000000000000000000000000000000000000000000000000000000815260040161058390613bb5565b60405180910390fd5b8060048111156105c5577f4e487b7100000000000000000000000000000000000000000000000000000000600052602160045260246000fd5b606684846040516105d7929190613989565b908152602001604051809103902060070160009054906101000a900460ff16600481111561062e577f4e487b7100000000000000000000000000000000000000000000000000000000600052602160045260246000fd5b1461066e576040517f08c379a000000000000000000000000000000000000000000000000000000000815260040161066590613bd5565b60405180910390fd5b600060668888604051610682929190613989565b90815260200160405180910390206004018054806020026020016040519081016040528092919081815260200182805480156106dd57602002820191906000526020600020905b8154815260200190600101908083116106c9575b505050505090506000606689896040516106f8929190613989565b908152602001604051809103902060030180548060200260200160405190810160405280929190818152602001828054801561075357602002820191906000526020600020905b81548152602001906001019080831161073f575b50505050509050606560009054906101000a900473ffffffffffffffffffffffffffffffffffffffff1673ffffffffffffffffffffffffffffffffffffffff1663b5fc1b698a8a84866040518563ffffffff1660e01b81526004016107bb9493929190613a87565b600060405180830381600087803b1580156107d557600080fd5b505af11580156107e9573d6000803e3d6000fd5b50505050606689896040516107ff929190613989565b90815260200160405180910390206000808201600061081e9190612e11565b6001820160006101000a81549073ffffffffffffffffffffffffffffffffffffffff02191690556002820160006101000a81549073ffffffffffffffffffffffffffffffffffffffff021916905560038201600061087c9190612e51565b60048201600061088c9190612e51565b600582016000905560068201600090556007820160006101000a81549060ff0219169055505060005b606780549050811015610a49576109dc606782815481106108ff577f4e487b7100000000000000000000000000000000000000000000000000000000600052603260045260246000fd5b90600052602060002001805461091490613f16565b80601f016020809104026020016040519081016040528092919081815260200182805461094090613f16565b801561098d5780601f106109625761010080835404028352916020019161098d565b820191906000526020600020905b81548152906001019060200180831161097057829003601f168201915b50505050508b8b8080601f016020809104026020016040519081016040528093929190818152602001838380828437600081840152601f19601f82011690508083019250505050505050612b25565b15610a365760678181548110610a1b577f4e487b7100000000000000000000000000000000000000000000000000000000600052603260045260246000fd5b906000526020600020016000610a319190612e11565b610a49565b8080610a4190613f93565b9150506108b5565b50505050505050505050565b81813373ffffffffffffffffffffffffffffffffffffffff1660668383604051610a80929190613989565b908152602001604051809103902060020160009054906101000a900473ffffffffffffffffffffffffffffffffffffffff1673ffffffffffffffffffffffffffffffffffffffff1614610b08576040517f08c379a0000000000000000000000000000000000000000000000000000000008152600401610aff90613b55565b60405180910390fd5b8383600160006004811115610b46577f4e487b7100000000000000000000000000000000000000000000000000000000600052602160045260246000fd5b60668484604051610b58929190613989565b908152602001604051809103902060070160009054906101000a900460ff166004811115610baf577f4e487b7100000000000000000000000000000000000000000000000000000000600052602160045260246000fd5b1415610bf0576040517f08c379a0000000000000000000000000000000000000000000000000000000008152600401610be790613bb5565b60405180910390fd5b806004811115610c29577f4e487b7100000000000000000000000000000000000000000000000000000000600052602160045260246000fd5b60668484604051610c3b929190613989565b908152602001604051809103902060070160009054906101000a900460ff166004811115610c92577f4e487b7100000000000000000000000000000000000000000000000000000000600052602160045260246000fd5b14610cd2576040517f08c379a0000000000000000000000000000000000000000000000000000000008152600401610cc990613bd5565b60405180910390fd5b8686600060668383604051610ce8929190613989565b9081526020016040518091039020600301805490509050600060668484604051610d13929190613989565b908152602001604051809103902060040180549050905060018210158015610d3c575060018110155b610d7b576040517f08c379a0000000000000000000000000000000000000000000000000000000008152600401610d7290613af5565b60405180910390fd5b600260668c8c604051610d8f929190613989565b908152602001604051809103902060070160006101000a81548160ff02191690836004811115610de8577f4e487b7100000000000000000000000000000000000000000000000000000000600052602160045260246000fd5b02179055505050505050505050505050565b606560009054906101000a900473ffffffffffffffffffffffffffffffffffffffff1673ffffffffffffffffffffffffffffffffffffffff163373ffffffffffffffffffffffffffffffffffffffff1614610e8a576040517f08c379a0000000000000000000000000000000000000000000000000000000008152600401610e8190613b15565b60405180910390fd5b8060668484604051610e9d929190613989565b908152602001604051809103902060070160006101000a81548160ff02191690836004811115610ef6577f4e487b7100000000000000000000000000000000000000000000000000000000600052602160045260246000fd5b0217905550505050565b606560009054906101000a900473ffffffffffffffffffffffffffffffffffffffff1673ffffffffffffffffffffffffffffffffffffffff163373ffffffffffffffffffffffffffffffffffffffff1614610f90576040517f08c379a0000000000000000000000000000000000000000000000000000000008152600401610f8790613b15565b60405180910390fd5b8383600160006004811115610fce577f4e487b7100000000000000000000000000000000000000000000000000000000600052602160045260246000fd5b60668484604051610fe0929190613989565b908152602001604051809103902060070160009054906101000a900460ff166004811115611037577f4e487b7100000000000000000000000000000000000000000000000000000000600052602160045260246000fd5b1415611078576040517f08c379a000000000000000000000000000000000000000000000000000000000815260040161106f90613bb5565b60405180910390fd5b8060048111156110b1577f4e487b7100000000000000000000000000000000000000000000000000000000600052602160045260246000fd5b606684846040516110c3929190613989565b908152602001604051809103902060070160009054906101000a900460ff16600481111561111a577f4e487b7100000000000000000000000000000000000000000000000000000000600052602160045260246000fd5b1461115a576040517f08c379a000000000000000000000000000000000000000000000000000000000815260040161115190613bd5565b60405180910390fd5b60006066888860405161116e929190613989565b908152602001604051809103902060030190506002808111156111ba577f4e487b7100000000000000000000000000000000000000000000000000000000600052602160045260246000fd5b8660028111156111f3577f4e487b7100000000000000000000000000000000000000000000000000000000600052602160045260246000fd5b141561121f576066888860405161120b929190613989565b908152602001604051809103902060040190505b60005b81805490508110156113755785828281548110611268577f4e487b7100000000000000000000000000000000000000000000000000000000600052603260045260246000fd5b9060005260206000200154141561136257816001838054905061128b9190613e0a565b815481106112c2577f4e487b7100000000000000000000000000000000000000000000000000000000600052603260045260246000fd5b9060005260206000200154828281548110611306577f4e487b7100000000000000000000000000000000000000000000000000000000600052603260045260246000fd5b90600052602060002001819055508180548061134b577f4e487b7100000000000000000000000000000000000000000000000000000000600052603160045260246000fd5b600190038181906000526020600020016000905590555b808061136d90613f93565b915050611222565b505050505050505050565b600060048111156113ba577f4e487b7100000000000000000000000000000000000000000000000000000000600052602160045260246000fd5b606685856040516113cc929190613989565b908152602001604051809103902060070160009054906101000a900460ff166004811115611423577f4e487b7100000000000000000000000000000000000000000000000000000000600052602160045260246000fd5b14611463576040517f08c379a000000000000000000000000000000000000000000000000000000000815260040161145a90613b35565b60405180910390fd5b8460668585604051611476929190613989565b908152602001604051809103902060010160006101000a81548173ffffffffffffffffffffffffffffffffffffffff021916908373ffffffffffffffffffffffffffffffffffffffff16021790555033606685856040516114d8929190613989565b908152602001604051809103902060020160006101000a81548173ffffffffffffffffffffffffffffffffffffffff021916908373ffffffffffffffffffffffffffffffffffffffff16021790555083836066868660405161153b929190613989565b90815260200160405180910390206000019190611559929190612e72565b50816066858560405161156d929190613989565b9081526020016040518091039020600501819055508060668585604051611595929190613989565b9081526020016040518091039020600601819055506001606685856040516115be929190613989565b908152602001604051809103902060070160006101000a81548160ff02191690836004811115611617577f4e487b7100000000000000000000000000000000000000000000000000000000600052602160045260246000fd5b02179055506067848490918060018154018082558091505060019003906000526020600020016000909192909192909192909192509190611659929190612e72565b505050505050565b611669612ef8565b606080600060048111156116a6577f4e487b7100000000000000000000000000000000000000000000000000000000600052602160045260246000fd5b606686866040516116b8929190613989565b908152602001604051809103902060070160009054906101000a900460ff16600481111561170f577f4e487b7100000000000000000000000000000000000000000000000000000000600052602160045260246000fd5b1415611750576040517f08c379a000000000000000000000000000000000000000000000000000000000815260040161174790613bb5565b60405180910390fd5b611758612ef8565b85858080601f016020809104026020016040519081016040528093929190818152602001838380828437600081840152601f19601f820116905080830192505050505050508160000181905250606686866040516117b7929190613989565b908152602001604051809103902060010160009054906101000a900473ffffffffffffffffffffffffffffffffffffffff16816020019073ffffffffffffffffffffffffffffffffffffffff16908173ffffffffffffffffffffffffffffffffffffffff168152505060668686604051611832929190613989565b908152602001604051809103902060020160009054906101000a900473ffffffffffffffffffffffffffffffffffffffff16816040019073ffffffffffffffffffffffffffffffffffffffff16908173ffffffffffffffffffffffffffffffffffffffff1681525050606686866040516118ad929190613989565b908152602001604051809103902060060154816080018181525050606686866040516118da929190613989565b90815260200160405180910390206005015481606001818152505060668686604051611907929190613989565b908152602001604051809103902060070160009054906101000a900460ff168160a001906004811115611963577f4e487b7100000000000000000000000000000000000000000000000000000000600052602160045260246000fd5b9081600481111561199d577f4e487b7100000000000000000000000000000000000000000000000000000000600052602160045260246000fd5b815250506000606560009054906101000a900473ffffffffffffffffffffffffffffffffffffffff1673ffffffffffffffffffffffffffffffffffffffff16635ec26c1f606689896040516119f3929190613989565b90815260200160405180910390206003016040518263ffffffff1660e01b8152600401611a209190613a2f565b60006040518083038186803b158015611a3857600080fd5b505afa158015611a4c573d6000803e3d6000fd5b505050506040513d6000823e3d601f19601f82011682018060405250810190611a7591906131c9565b90506000606560009054906101000a900473ffffffffffffffffffffffffffffffffffffffff1673ffffffffffffffffffffffffffffffffffffffff1663bacdf40b60668a8a604051611ac9929190613989565b90815260200160405180910390206004016040518263ffffffff1660e01b8152600401611af69190613a2f565b60006040518083038186803b158015611b0e57600080fd5b505afa158015611b22573d6000803e3d6000fd5b505050506040513d6000823e3d601f19601f82011682018060405250810190611b4b91906131c9565b90508282829550955095505050509250925092565b606560009054906101000a900473ffffffffffffffffffffffffffffffffffffffff1673ffffffffffffffffffffffffffffffffffffffff163373ffffffffffffffffffffffffffffffffffffffff1614611bf0576040517f08c379a0000000000000000000000000000000000000000000000000000000008152600401611be790613b15565b60405180910390fd5b8383600160006004811115611c2e577f4e487b7100000000000000000000000000000000000000000000000000000000600052602160045260246000fd5b60668484604051611c40929190613989565b908152602001604051809103902060070160009054906101000a900460ff166004811115611c97577f4e487b7100000000000000000000000000000000000000000000000000000000600052602160045260246000fd5b1415611cd8576040517f08c379a0000000000000000000000000000000000000000000000000000000008152600401611ccf90613bb5565b60405180910390fd5b806004811115611d11577f4e487b7100000000000000000000000000000000000000000000000000000000600052602160045260246000fd5b60668484604051611d23929190613989565b908152602001604051809103902060070160009054906101000a900460ff166004811115611d7a577f4e487b7100000000000000000000000000000000000000000000000000000000600052602160045260246000fd5b14611dba576040517f08c379a0000000000000000000000000000000000000000000000000000000008152600401611db190613bd5565b60405180910390fd5b60016002811115611df4577f4e487b7100000000000000000000000000000000000000000000000000000000600052602160045260246000fd5b856002811115611e2d577f4e487b7100000000000000000000000000000000000000000000000000000000600052602160045260246000fd5b1415611e825760668787604051611e45929190613989565b9081526020016040518091039020600301849080600181540180825580915050600190039060005260206000200160009091909190915055611f46565b600280811115611ebb577f4e487b7100000000000000000000000000000000000000000000000000000000600052602160045260246000fd5b856002811115611ef4577f4e487b7100000000000000000000000000000000000000000000000000000000600052602160045260246000fd5b1415611f455760668787604051611f0c929190613989565b90815260200160405180910390206004018490806001815401808255809150506001900390600052602060002001600090919091909150555b5b50505050505050565b6060606560009054906101000a900473ffffffffffffffffffffffffffffffffffffffff1673ffffffffffffffffffffffffffffffffffffffff163373ffffffffffffffffffffffffffffffffffffffff1614611fe1576040517f08c379a0000000000000000000000000000000000000000000000000000000008152600401611fd890613b15565b60405180910390fd5b60606001600281111561201d577f4e487b7100000000000000000000000000000000000000000000000000000000600052602160045260246000fd5b836002811115612056577f4e487b7100000000000000000000000000000000000000000000000000000000600052602160045260246000fd5b14156120d5576066858560405161206e929190613989565b90815260200160405180910390206003018054806020026020016040519081016040528092919081815260200182805480156120c957602002820191906000526020600020905b8154815260200190600101908083116120b5575b505050505090506121c3565b60028081111561210e577f4e487b7100000000000000000000000000000000000000000000000000000000600052602160045260246000fd5b836002811115612147577f4e487b7100000000000000000000000000000000000000000000000000000000600052602160045260246000fd5b14156121c2576066858560405161215f929190613989565b90815260200160405180910390206004018054806020026020016040519081016040528092919081815260200182805480156121ba57602002820191906000526020600020905b8154815260200190600101908083116121a6575b505050505090505b5b809150509392505050565b6121d6612b1d565b73ffffffffffffffffffffffffffffffffffffffff166121f46122ea565b73ffffffffffffffffffffffffffffffffffffffff161461224a576040517f08c379a000000000000000000000000000000000000000000000000000000000815260040161224190613b95565b60405180910390fd5b6122546000612b7e565b565b60006122626001612c44565b90508015612286576001600060016101000a81548160ff0219169083151502179055505b61228e612d34565b80156122e75760008060016101000a81548160ff0219169083151502179055507f7f26b83ff96e1f2b6a682f133852f6798a09c465da95921460cefb384740249860016040516122de9190613a6c565b60405180910390a15b50565b6000603360009054906101000a900473ffffffffffffffffffffffffffffffffffffffff16905090565b6060600060678054905067ffffffffffffffff81111561235d577f4e487b7100000000000000000000000000000000000000000000000000000000600052604160045260246000fd5b60405190808252806020026020018201604052801561239057816020015b606081526020019060019003908161237b5790505b5090506000805b60678054905081101561258f578473ffffffffffffffffffffffffffffffffffffffff166066606783815481106123f7577f4e487b7100000000000000000000000000000000000000000000000000000000600052603260045260246000fd5b9060005260206000200160405161240e91906139b9565b908152602001604051809103902060010160009054906101000a900473ffffffffffffffffffffffffffffffffffffffff1673ffffffffffffffffffffffffffffffffffffffff16141561257c5760678181548110612496577f4e487b7100000000000000000000000000000000000000000000000000000000600052603260045260246000fd5b9060005260206000200180546124ab90613f16565b80601f01602080910402602001604051908101604052809291908181526020018280546124d790613f16565b80156125245780601f106124f957610100808354040283529160200191612524565b820191906000526020600020905b81548152906001019060200180831161250757829003601f168201915b5050505050838381518110612562577f4e487b7100000000000000000000000000000000000000000000000000000000600052603260045260246000fd5b6020026020010181905250818061257890613f93565b9250505b808061258790613f93565b915050612397565b508192505050919050565b6000606560009054906101000a900473ffffffffffffffffffffffffffffffffffffffff1673ffffffffffffffffffffffffffffffffffffffff163373ffffffffffffffffffffffffffffffffffffffff161461262c576040517f08c379a000000000000000000000000000000000000000000000000000000000815260040161262390613b15565b60405180910390fd5b83838360006004811115612669577f4e487b7100000000000000000000000000000000000000000000000000000000600052602160045260246000fd5b6066848460405161267b929190613989565b908152602001604051809103902060070160009054906101000a900460ff1660048111156126d2577f4e487b7100000000000000000000000000000000000000000000000000000000600052602160045260246000fd5b1415612713576040517f08c379a000000000000000000000000000000000000000000000000000000000815260040161270a90613bb5565b60405180910390fd5b80600481111561274c577f4e487b7100000000000000000000000000000000000000000000000000000000600052602160045260246000fd5b6066848460405161275e929190613989565b908152602001604051809103902060070160009054906101000a900460ff1660048111156127b5577f4e487b7100000000000000000000000000000000000000000000000000000000600052602160045260246000fd5b146127f5576040517f08c379a00000000000000000000000000000000000000000000000000000000081526004016127ec90613bd5565b60405180910390fd5b600193505050509392505050565b6000606560009054906101000a900473ffffffffffffffffffffffffffffffffffffffff16905090565b612835612f92565b606560009054906101000a900473ffffffffffffffffffffffffffffffffffffffff1673ffffffffffffffffffffffffffffffffffffffff163373ffffffffffffffffffffffffffffffffffffffff16146128c5576040517f08c379a00000000000000000000000000000000000000000000000000000000081526004016128bc90613b15565b60405180910390fd5b6128cd612f92565b606684846040516128df929190613989565b908152602001604051809103902060040180548060200260200160405190810160405280929190818152602001828054801561293a57602002820191906000526020600020905b815481526020019060010190808311612926575b5050505050816040018190525060668484604051612959929190613989565b90815260200160405180910390206003018054806020026020016040519081016040528092919081815260200182805480156129b457602002820191906000526020600020905b8154815260200190600101908083116129a0575b50505050508160600181905250606684846040516129d3929190613989565b90815260200160405180910390206005015481600001818152505060668484604051612a00929190613989565b9081526020016040518091039020600601548160200181815250508091505092915050565b612a2d612b1d565b73ffffffffffffffffffffffffffffffffffffffff16612a4b6122ea565b73ffffffffffffffffffffffffffffffffffffffff1614612aa1576040517f08c379a0000000000000000000000000000000000000000000000000000000008152600401612a9890613b95565b60405180910390fd5b600073ffffffffffffffffffffffffffffffffffffffff168173ffffffffffffffffffffffffffffffffffffffff161415612b11576040517f08c379a0000000000000000000000000000000000000000000000000000000008152600401612b0890613ad5565b60405180910390fd5b612b1a81612b7e565b50565b600033905090565b600081604051602001612b3891906139a2565b6040516020818303038152906040528051906020012083604051602001612b5f91906139a2565b6040516020818303038152906040528051906020012014905092915050565b6000603360009054906101000a900473ffffffffffffffffffffffffffffffffffffffff16905081603360006101000a81548173ffffffffffffffffffffffffffffffffffffffff021916908373ffffffffffffffffffffffffffffffffffffffff1602179055508173ffffffffffffffffffffffffffffffffffffffff168173ffffffffffffffffffffffffffffffffffffffff167f8be0079c531659141344cd1fd0a4f28419497f9722a3daafe3b4186f6b6457e060405160405180910390a35050565b60008060019054906101000a900460ff1615612cbb5760018260ff16148015612c735750612c7130612d8d565b155b612cb2576040517f08c379a0000000000000000000000000000000000000000000000000000000008152600401612ca990613b75565b60405180910390fd5b60009050612d2f565b8160ff1660008054906101000a900460ff1660ff1610612d10576040517f08c379a0000000000000000000000000000000000000000000000000000000008152600401612d0790613b75565b60405180910390fd5b816000806101000a81548160ff021916908360ff160217905550600190505b919050565b600060019054906101000a900460ff16612d83576040517f08c379a0000000000000000000000000000000000000000000000000000000008152600401612d7a90613bf5565b60405180910390fd5b612d8b612db0565b565b6000808273ffffffffffffffffffffffffffffffffffffffff163b119050919050565b600060019054906101000a900460ff16612dff576040517f08c379a0000000000000000000000000000000000000000000000000000000008152600401612df690613bf5565b60405180910390fd5b612e0f612e0a612b1d565b612b7e565b565b508054612e1d90613f16565b6000825580601f10612e2f5750612e4e565b601f016020900490600052602060002090810190612e4d9190612fba565b5b50565b5080546000825590600052602060002090810190612e6f9190612fba565b50565b828054612e7e90613f16565b90600052602060002090601f016020900481019282612ea05760008555612ee7565b82601f10612eb957803560ff1916838001178555612ee7565b82800160010185558215612ee7579182015b82811115612ee6578235825591602001919060010190612ecb565b5b509050612ef49190612fba565b5090565b6040518060c0016040528060608152602001600073ffffffffffffffffffffffffffffffffffffffff168152602001600073ffffffffffffffffffffffffffffffffffffffff168152602001600081526020016000815260200160006004811115612f8c577f4e487b7100000000000000000000000000000000000000000000000000000000600052602160045260246000fd5b81525090565b6040518060800160405280600081526020016000815260200160608152602001606081525090565b5b80821115612fd3576000816000905550600101612fbb565b5090565b6000612fea612fe584613ca8565b613c83565b9050808382526020820190508285602086028201111561300957600080fd5b60005b85811015613039578161301f8882613058565b84526020840193506020830192505060018101905061300c565b5050509392505050565b600081359050613052816143cd565b92915050565b600081519050613067816143cd565b92915050565b600082601f83011261307e57600080fd5b815161308e848260208601612fd7565b91505092915050565b6000813590506130a6816143e4565b92915050565b6000813590506130bb816143f4565b92915050565b60008083601f8401126130d357600080fd5b8235905067ffffffffffffffff8111156130ec57600080fd5b60208301915083600182028301111561310457600080fd5b9250929050565b60008135905061311a81614404565b92915050565b60006020828403121561313257600080fd5b600061314084828501613043565b91505092915050565b60008060008060006080868803121561316157600080fd5b600061316f88828901613043565b955050602086013567ffffffffffffffff81111561318c57600080fd5b613198888289016130c1565b945094505060406131ab8882890161310b565b92505060606131bc8882890161310b565b9150509295509295909350565b6000602082840312156131db57600080fd5b600082015167ffffffffffffffff8111156131f557600080fd5b6132018482850161306d565b91505092915050565b6000806020838503121561321d57600080fd5b600083013567ffffffffffffffff81111561323757600080fd5b613243858286016130c1565b92509250509250929050565b60008060006040848603121561326457600080fd5b600084013567ffffffffffffffff81111561327e57600080fd5b61328a868287016130c1565b9350935050602061329d86828701613097565b9150509250925092565b600080600080606085870312156132bd57600080fd5b600085013567ffffffffffffffff8111156132d757600080fd5b6132e3878288016130c1565b945094505060206132f687828801613097565b92505060406133078782880161310b565b91505092959194509250565b60008060006040848603121561332857600080fd5b600084013567ffffffffffffffff81111561334257600080fd5b61334e868287016130c1565b93509350506020613361868287016130ac565b9150509250925092565b600061337783836133af565b60208301905092915050565b600061338f8383613640565b905092915050565b60006133a3838361397a565b60208301905092915050565b6133b881613e48565b82525050565b6133c781613e48565b82525050565b60006133d882613d2e565b6133e28185613d99565b93506133ed83613cd4565b8060005b8381101561341e578151613405888261336b565b975061341083613d65565b9250506001810190506133f1565b5085935050505092915050565b600061343682613d39565b6134408185613daa565b93508360208202850161345285613ce4565b8060005b8581101561348e578484038952815161346f8582613383565b945061347a83613d72565b925060208a01995050600181019050613456565b50829750879550505050505092915050565b60006134ab82613d44565b6134b58185613dbb565b93506134c083613cf4565b8060005b838110156134f15781516134d88882613397565b97506134e383613d7f565b9250506001810190506134c4565b5085935050505092915050565b600061350982613d44565b6135138185613dcc565b935061351e83613cf4565b8060005b8381101561354f5781516135368882613397565b975061354183613d7f565b925050600181019050613522565b5085935050505092915050565b600061356782613d4f565b6135718185613dcc565b935061357c83613d04565b8060005b838110156135b45761359182614098565b61359b8882613397565b97506135a683613d8c565b925050600181019050613580565b5085935050505092915050565b6135ca81613e5a565b82525050565b6135d981613eb0565b82525050565b6135e881613ec2565b82525050565b60006135fa8385613dee565b9350613607838584613ed4565b613610836140ab565b840190509392505050565b60006136278385613dff565b9350613634838584613ed4565b82840190509392505050565b600061364b82613d5a565b6136558185613ddd565b9350613665818560208601613ee3565b61366e816140ab565b840191505092915050565b600061368482613d5a565b61368e8185613dff565b935061369e818560208601613ee3565b80840191505092915050565b600081546136b781613f16565b6136c18186613dff565b945060018216600081146136dc57600181146136ed57613720565b60ff19831686528186019350613720565b6136f685613d19565b60005b83811015613718578154818901526001820191506020810190506136f9565b838801955050505b50505092915050565b6000613736602683613dee565b9150613741826140c9565b604082019050919050565b6000613759604983613dee565b915061376482614118565b606082019050919050565b600061377c601e83613dee565b91506137878261418d565b602082019050919050565b600061379f602383613dee565b91506137aa826141b6565b604082019050919050565b60006137c2602283613dee565b91506137cd82614205565b604082019050919050565b60006137e5602e83613dee565b91506137f082614254565b604082019050919050565b6000613808602083613dee565b9150613813826142a3565b602082019050919050565b600061382b602283613dee565b9150613836826142cc565b604082019050919050565b600061384e602e83613dee565b91506138598261431b565b604082019050919050565b6000613871602b83613dee565b915061387c8261436a565b604082019050919050565b600060808301600083015161389f600086018261397a565b5060208301516138b2602086018261397a565b50604083015184820360408601526138ca82826134a0565b915050606083015184820360608601526138e482826134a0565b9150508091505092915050565b600060c083016000830151848203600086015261390e8282613640565b915050602083015161392360208601826133af565b50604083015161393660408601826133af565b506060830151613949606086018261397a565b50608083015161395c608086018261397a565b5060a083015161396f60a08601826135d0565b508091505092915050565b61398381613e99565b82525050565b600061399682848661361b565b91508190509392505050565b60006139ae8284613679565b915081905092915050565b60006139c582846136aa565b915081905092915050565b60006020820190506139e560008301846133be565b92915050565b60006020820190508181036000830152613a05818461342b565b905092915050565b60006020820190508181036000830152613a2781846134fe565b905092915050565b60006020820190508181036000830152613a49818461355c565b905092915050565b6000602082019050613a6660008301846135c1565b92915050565b6000602082019050613a8160008301846135df565b92915050565b60006060820190508181036000830152613aa28186886135ee565b90508181036020830152613ab681856134fe565b90508181036040830152613aca81846134fe565b905095945050505050565b60006020820190508181036000830152613aee81613729565b9050919050565b60006020820190508181036000830152613b0e8161374c565b9050919050565b60006020820190508181036000830152613b2e8161376f565b9050919050565b60006020820190508181036000830152613b4e81613792565b9050919050565b60006020820190508181036000830152613b6e816137b5565b9050919050565b60006020820190508181036000830152613b8e816137d8565b9050919050565b60006020820190508181036000830152613bae816137fb565b9050919050565b60006020820190508181036000830152613bce8161381e565b9050919050565b60006020820190508181036000830152613bee81613841565b9050919050565b60006020820190508181036000830152613c0e81613864565b9050919050565b60006020820190508181036000830152613c2f8184613887565b905092915050565b60006060820190508181036000830152613c5181866138f1565b90508181036020830152613c6581856133cd565b90508181036040830152613c7981846133cd565b9050949350505050565b6000613c8d613c9e565b9050613c998282613f62565b919050565b6000604051905090565b600067ffffffffffffffff821115613cc357613cc2614069565b5b602082029050602081019050919050565b6000819050602082019050919050565b6000819050602082019050919050565b6000819050602082019050919050565b60008190508160005260206000209050919050565b60008190508160005260206000209050919050565b600081519050919050565b600081519050919050565b600081519050919050565b600081549050919050565b600081519050919050565b6000602082019050919050565b6000602082019050919050565b6000602082019050919050565b6000600182019050919050565b600082825260208201905092915050565b600082825260208201905092915050565b600082825260208201905092915050565b600082825260208201905092915050565b600082825260208201905092915050565b600082825260208201905092915050565b600081905092915050565b6000613e1582613e99565b9150613e2083613e99565b925082821015613e3357613e32613fdc565b5b828203905092915050565b6000819050919050565b6000613e5382613e79565b9050919050565b60008115159050919050565b6000819050613e74826143b9565b919050565b600073ffffffffffffffffffffffffffffffffffffffff82169050919050565b6000819050919050565b600060ff82169050919050565b6000613ebb82613e66565b9050919050565b6000613ecd82613ea3565b9050919050565b82818337600083830152505050565b60005b83811015613f01578082015181840152602081019050613ee6565b83811115613f10576000848401525b50505050565b60006002820490506001821680613f2e57607f821691505b60208210811415613f4257613f4161403a565b5b50919050565b6000613f5b613f56836140bc565b613e3e565b9050919050565b613f6b826140ab565b810181811067ffffffffffffffff82111715613f8a57613f89614069565b5b80604052505050565b6000613f9e82613e99565b91507fffffffffffffffffffffffffffffffffffffffffffffffffffffffffffffffff821415613fd157613fd0613fdc565b5b600182019050919050565b7f4e487b7100000000000000000000000000000000000000000000000000000000600052601160045260246000fd5b7f4e487b7100000000000000000000000000000000000000000000000000000000600052602160045260246000fd5b7f4e487b7100000000000000000000000000000000000000000000000000000000600052602260045260246000fd5b7f4e487b7100000000000000000000000000000000000000000000000000000000600052604160045260246000fd5b60006140a48254613f48565b9050919050565b6000601f19601f8301169050919050565b60008160001c9050919050565b7f4f776e61626c653a206e6577206f776e657220697320746865207a65726f206160008201527f6464726573730000000000000000000000000000000000000000000000000000602082015250565b7f496e206f7264657220746f20626567696e2061207461736b2c2069742073686f60008201527f756c642068617665206174206c65617374203120726576696577657220616e6460208201527f203120776f726b65720000000000000000000000000000000000000000000000604082015250565b7f596f7520617265206e6f7420616c6c6f77656420746f20646f20746861740000600082015250565b7f546865207461736b2077697468207468697320494420616c726561647920657860008201527f6973740000000000000000000000000000000000000000000000000000000000602082015250565b7f4f6e6c79206f776e6572206f6620746865207461736b2063616e20646f20746860008201527f6174000000000000000000000000000000000000000000000000000000000000602082015250565b7f496e697469616c697a61626c653a20636f6e747261637420697320616c72656160008201527f647920696e697469616c697a6564000000000000000000000000000000000000602082015250565b7f4f776e61626c653a2063616c6c6572206973206e6f7420746865206f776e6572600082015250565b7f41207461736b2077697468207468697320494420646f6573206e6f742065786960008201527f7374000000000000000000000000000000000000000000000000000000000000602082015250565b7f596f752063616e277420646f207468697320616374696f6e206174206375727260008201527f656e74205461736b207374616765000000000000000000000000000000000000602082015250565b7f496e697469616c697a61626c653a20636f6e7472616374206973206e6f74206960008201527f6e697469616c697a696e67000000000000000000000000000000000000000000602082015250565b600581106143ca576143c961400b565b5b50565b6143d681613e48565b81146143e157600080fd5b50565b600381106143f157600080fd5b50565b6005811061440157600080fd5b50565b61440d81613e99565b811461441857600080fd5b5056fea2646970667358221220c4e74cef824648d0991a2eed26b37e10852551a73da650bd3ccac654cf06151f64736f6c63430008040033",
  "linkReferences": {},
  "deployedLinkReferences": {}
}