{
  "_format": "hh-sol-artifact-1",
  "contractName": "TaskManager",
  "sourceName": "contracts/TaskManager.sol",
  "abi": [
    {
      "anonymous": false,
      "inputs": [
        {
          "indexed": false,
          "internalType": "uint8",
          "name": "version",
          "type": "uint8"
        }
      ],
      "name": "Initialized",
      "type": "event"
    },
    {
      "anonymous": false,
      "inputs": [
        {
          "indexed": true,
          "internalType": "address",
          "name": "previousOwner",
          "type": "address"
        },
        {
          "indexed": true,
          "internalType": "address",
          "name": "newOwner",
          "type": "address"
        }
      ],
      "name": "OwnershipTransferred",
      "type": "event"
    },
    {
      "inputs": [
        {
          "internalType": "string",
          "name": "id",
          "type": "string"
        },
        {
          "internalType": "enum SharedTypes.TaskRole",
          "name": "role",
          "type": "uint8"
        },
        {
          "internalType": "uint256",
          "name": "index",
          "type": "uint256"
        }
      ],
      "name": "addMemberIndex",
      "outputs": [],
      "stateMutability": "nonpayable",
      "type": "function"
    },
    {
      "inputs": [
        {
          "internalType": "string",
          "name": "id",
          "type": "string"
        }
      ],
      "name": "beginTask",
      "outputs": [],
      "stateMutability": "nonpayable",
      "type": "function"
    },
    {
      "inputs": [
        {
          "internalType": "string",
          "name": "id",
          "type": "string"
        },
        {
          "internalType": "enum SharedTypes.TaskStatus",
          "name": "status",
          "type": "uint8"
        }
      ],
      "name": "changeStatus",
      "outputs": [],
      "stateMutability": "nonpayable",
      "type": "function"
    },
    {
      "inputs": [
        {
          "internalType": "string",
          "name": "id",
          "type": "string"
        },
        {
          "internalType": "enum SharedTypes.TaskStatus",
          "name": "status",
          "type": "uint8"
        }
      ],
      "name": "checkTaskStatus",
      "outputs": [
        {
          "internalType": "bool",
          "name": "",
          "type": "bool"
        }
      ],
      "stateMutability": "view",
      "type": "function"
    },
    {
      "inputs": [
        {
          "internalType": "address",
          "name": "daoContract",
          "type": "address"
        },
        {
          "internalType": "string",
          "name": "id",
          "type": "string"
        },
        {
          "internalType": "uint256",
          "name": "prize",
          "type": "uint256"
        },
        {
          "internalType": "uint256",
          "name": "percentageForReviewers",
          "type": "uint256"
        }
      ],
      "name": "createTask",
      "outputs": [],
      "stateMutability": "nonpayable",
      "type": "function"
    },
    {
      "inputs": [
        {
          "internalType": "address",
          "name": "daoContract",
          "type": "address"
        }
      ],
      "name": "getAllDaoTasks",
      "outputs": [
        {
          "internalType": "string[]",
          "name": "",
          "type": "string[]"
        }
      ],
      "stateMutability": "view",
      "type": "function"
    },
    {
      "inputs": [
        {
          "internalType": "string",
          "name": "id",
          "type": "string"
        },
        {
          "internalType": "enum SharedTypes.TaskRole",
          "name": "role",
          "type": "uint8"
        }
      ],
      "name": "getMemberIndexes",
      "outputs": [
        {
          "internalType": "uint256[]",
          "name": "",
          "type": "uint256[]"
        }
      ],
      "stateMutability": "view",
      "type": "function"
    },
    {
      "inputs": [
        {
          "internalType": "string",
          "name": "id",
          "type": "string"
        }
      ],
      "name": "getTask",
      "outputs": [
        {
          "components": [
            {
              "internalType": "address",
              "name": "daoContract",
              "type": "address"
            },
            {
              "internalType": "address",
              "name": "taskOwner",
              "type": "address"
            },
            {
              "internalType": "uint256",
              "name": "prize",
              "type": "uint256"
            },
            {
              "internalType": "uint256",
              "name": "percentageForReviewers",
              "type": "uint256"
            },
            {
              "internalType": "enum SharedTypes.TaskStatus",
              "name": "status",
              "type": "uint8"
            }
          ],
          "internalType": "struct TaskManager.TaskToGet",
          "name": "",
          "type": "tuple"
        },
        {
          "internalType": "address[]",
          "name": "",
          "type": "address[]"
        },
        {
          "internalType": "address[]",
          "name": "",
          "type": "address[]"
        }
      ],
      "stateMutability": "view",
      "type": "function"
    },
    {
      "inputs": [
        {
          "internalType": "string",
          "name": "id",
          "type": "string"
        }
      ],
      "name": "getTaskDataForCalculation",
      "outputs": [
        {
          "components": [
            {
              "internalType": "uint256",
              "name": "prize",
              "type": "uint256"
            },
            {
              "internalType": "uint256",
              "name": "percentageForReviewers",
              "type": "uint256"
            },
            {
              "internalType": "uint256[]",
              "name": "reviewersIndexes",
              "type": "uint256[]"
            },
            {
              "internalType": "uint256[]",
              "name": "workersIndexes",
              "type": "uint256[]"
            }
          ],
          "internalType": "struct SharedTypes.TaskDataForCalculation",
          "name": "",
          "type": "tuple"
        }
      ],
      "stateMutability": "view",
      "type": "function"
    },
    {
      "inputs": [],
      "name": "getTaskMemberProxy",
      "outputs": [
        {
          "internalType": "address",
          "name": "",
          "type": "address"
        }
      ],
      "stateMutability": "view",
      "type": "function"
    },
    {
      "inputs": [],
      "name": "initialize",
      "outputs": [],
      "stateMutability": "nonpayable",
      "type": "function"
    },
    {
      "inputs": [],
      "name": "owner",
      "outputs": [
        {
          "internalType": "address",
          "name": "",
          "type": "address"
        }
      ],
      "stateMutability": "view",
      "type": "function"
    },
    {
      "inputs": [
        {
          "internalType": "string",
          "name": "id",
          "type": "string"
        },
        {
          "internalType": "enum SharedTypes.TaskRole",
          "name": "role",
          "type": "uint8"
        },
        {
          "internalType": "uint256",
          "name": "index",
          "type": "uint256"
        }
      ],
      "name": "removeMember",
      "outputs": [],
      "stateMutability": "nonpayable",
      "type": "function"
    },
    {
      "inputs": [
        {
          "internalType": "string",
          "name": "id",
          "type": "string"
        }
      ],
      "name": "removeTask",
      "outputs": [],
      "stateMutability": "nonpayable",
      "type": "function"
    },
    {
      "inputs": [],
      "name": "renounceOwnership",
      "outputs": [],
      "stateMutability": "nonpayable",
      "type": "function"
    },
    {
      "inputs": [
        {
          "internalType": "address",
          "name": "_taskMemberProxy",
          "type": "address"
        }
      ],
      "name": "setTaskMemberProxy",
      "outputs": [],
      "stateMutability": "nonpayable",
      "type": "function"
    },
    {
      "inputs": [
        {
          "internalType": "address",
          "name": "newOwner",
          "type": "address"
        }
      ],
      "name": "transferOwnership",
      "outputs": [],
      "stateMutability": "nonpayable",
      "type": "function"
    }
  ],
  "bytecode": "0x608060405234801561001057600080fd5b506143d5806100206000396000f3fe608060405234801561001057600080fd5b506004361061010a5760003560e01c80635d5e697a116100a2578063a6bc250611610071578063a6bc250614610267578063acdf47c114610297578063b4e03175146102c7578063bcd5af0e146102e5578063f2fde38b146103155761010a565b80635d5e697a14610205578063715018a6146102355780638129fc1c1461023f5780638da5cb5b146102495761010a565b80632ac46d81116100de5780632ac46d811461017f5780633c7777fb1461019b5780634240803d146101b7578063476cc8ab146101e95761010a565b806238e2c41461010f5780630da8073d1461012b57806324b701861461014757806328d1f35e14610163575b600080fd5b610129600480360381019061012491906130cc565b610331565b005b610145600480360381019061014091906131b6565b6103f1565b005b610161600480360381019061015c91906131b6565b610a55565b005b61017d600480360381019061017891906132bf565b610dfa565b005b61019960048036038101906101949190613253565b610f00565b005b6101b560048036038101906101b091906130f5565b611380565b005b6101d160048036038101906101cc91906131b6565b611661565b6040516101e093929190613bc2565b60405180910390f35b61020360048036038101906101fe9190613253565b611b13565b005b61021f600480360381019061021a91906131fb565b611f02565b60405161022c9190613998565b60405180910390f35b61023d612181565b005b610247612209565b005b61025161229d565b60405161025e919061395b565b60405180910390f35b610281600480360381019061027c91906130cc565b6122c7565b60405161028e9190613976565b60405180910390f35b6102b160048036038101906102ac91906132bf565b61254d565b6040516102be91906139dc565b60405180910390f35b6102cf6127b6565b6040516102dc919061395b565b60405180910390f35b6102ff60048036038101906102fa91906131b6565b6127e0565b60405161030c9190613ba0565b60405180910390f35b61032f600480360381019061032a91906130cc565b6129d8565b005b610339612ad0565b73ffffffffffffffffffffffffffffffffffffffff1661035761229d565b73ffffffffffffffffffffffffffffffffffffffff16146103ad576040517f08c379a00000000000000000000000000000000000000000000000000000000081526004016103a490613b20565b60405180910390fd5b80606560006101000a81548173ffffffffffffffffffffffffffffffffffffffff021916908373ffffffffffffffffffffffffffffffffffffffff16021790555050565b81813373ffffffffffffffffffffffffffffffffffffffff166066838360405161041c929190613914565b908152602001604051809103902060020160009054906101000a900473ffffffffffffffffffffffffffffffffffffffff1673ffffffffffffffffffffffffffffffffffffffff16146104a4576040517f08c379a000000000000000000000000000000000000000000000000000000000815260040161049b90613ae0565b60405180910390fd5b83836001600060048111156104e2577f4e487b7100000000000000000000000000000000000000000000000000000000600052602160045260246000fd5b606684846040516104f4929190613914565b908152602001604051809103902060070160009054906101000a900460ff16600481111561054b577f4e487b7100000000000000000000000000000000000000000000000000000000600052602160045260246000fd5b141561058c576040517f08c379a000000000000000000000000000000000000000000000000000000000815260040161058390613b40565b60405180910390fd5b8060048111156105c5577f4e487b7100000000000000000000000000000000000000000000000000000000600052602160045260246000fd5b606684846040516105d7929190613914565b908152602001604051809103902060070160009054906101000a900460ff16600481111561062e577f4e487b7100000000000000000000000000000000000000000000000000000000600052602160045260246000fd5b1461066e576040517f08c379a000000000000000000000000000000000000000000000000000000000815260040161066590613b60565b60405180910390fd5b600060668888604051610682929190613914565b90815260200160405180910390206004018054806020026020016040519081016040528092919081815260200182805480156106dd57602002820191906000526020600020905b8154815260200190600101908083116106c9575b505050505090506000606689896040516106f8929190613914565b908152602001604051809103902060030180548060200260200160405190810160405280929190818152602001828054801561075357602002820191906000526020600020905b81548152602001906001019080831161073f575b50505050509050606560009054906101000a900473ffffffffffffffffffffffffffffffffffffffff1673ffffffffffffffffffffffffffffffffffffffff1663b5fc1b698a8a84866040518563ffffffff1660e01b81526004016107bb9493929190613a12565b600060405180830381600087803b1580156107d557600080fd5b505af11580156107e9573d6000803e3d6000fd5b50505050606689896040516107ff929190613914565b90815260200160405180910390206000808201600061081e9190612dc4565b6001820160006101000a81549073ffffffffffffffffffffffffffffffffffffffff02191690556002820160006101000a81549073ffffffffffffffffffffffffffffffffffffffff021916905560038201600061087c9190612e04565b60048201600061088c9190612e04565b600582016000905560068201600090556007820160006101000a81549060ff0219169055505060005b606780549050811015610a49576109dc606782815481106108ff577f4e487b7100000000000000000000000000000000000000000000000000000000600052603260045260246000fd5b90600052602060002001805461091490613e9a565b80601f016020809104026020016040519081016040528092919081815260200182805461094090613e9a565b801561098d5780601f106109625761010080835404028352916020019161098d565b820191906000526020600020905b81548152906001019060200180831161097057829003601f168201915b50505050508b8b8080601f016020809104026020016040519081016040528093929190818152602001838380828437600081840152601f19601f82011690508083019250505050505050612ad8565b15610a365760678181548110610a1b577f4e487b7100000000000000000000000000000000000000000000000000000000600052603260045260246000fd5b906000526020600020016000610a319190612dc4565b610a49565b8080610a4190613f17565b9150506108b5565b50505050505050505050565b81813373ffffffffffffffffffffffffffffffffffffffff1660668383604051610a80929190613914565b908152602001604051809103902060020160009054906101000a900473ffffffffffffffffffffffffffffffffffffffff1673ffffffffffffffffffffffffffffffffffffffff1614610b08576040517f08c379a0000000000000000000000000000000000000000000000000000000008152600401610aff90613ae0565b60405180910390fd5b8383600160006004811115610b46577f4e487b7100000000000000000000000000000000000000000000000000000000600052602160045260246000fd5b60668484604051610b58929190613914565b908152602001604051809103902060070160009054906101000a900460ff166004811115610baf577f4e487b7100000000000000000000000000000000000000000000000000000000600052602160045260246000fd5b1415610bf0576040517f08c379a0000000000000000000000000000000000000000000000000000000008152600401610be790613b40565b60405180910390fd5b806004811115610c29577f4e487b7100000000000000000000000000000000000000000000000000000000600052602160045260246000fd5b60668484604051610c3b929190613914565b908152602001604051809103902060070160009054906101000a900460ff166004811115610c92577f4e487b7100000000000000000000000000000000000000000000000000000000600052602160045260246000fd5b14610cd2576040517f08c379a0000000000000000000000000000000000000000000000000000000008152600401610cc990613b60565b60405180910390fd5b8686600060668383604051610ce8929190613914565b9081526020016040518091039020600301805490509050600060668484604051610d13929190613914565b908152602001604051809103902060040180549050905060018210158015610d3c575060018110155b610d7b576040517f08c379a0000000000000000000000000000000000000000000000000000000008152600401610d7290613a80565b60405180910390fd5b600260668c8c604051610d8f929190613914565b908152602001604051809103902060070160006101000a81548160ff02191690836004811115610de8577f4e487b7100000000000000000000000000000000000000000000000000000000600052602160045260246000fd5b02179055505050505050505050505050565b606560009054906101000a900473ffffffffffffffffffffffffffffffffffffffff1673ffffffffffffffffffffffffffffffffffffffff163373ffffffffffffffffffffffffffffffffffffffff1614610e8a576040517f08c379a0000000000000000000000000000000000000000000000000000000008152600401610e8190613aa0565b60405180910390fd5b8060668484604051610e9d929190613914565b908152602001604051809103902060070160006101000a81548160ff02191690836004811115610ef6577f4e487b7100000000000000000000000000000000000000000000000000000000600052602160045260246000fd5b0217905550505050565b606560009054906101000a900473ffffffffffffffffffffffffffffffffffffffff1673ffffffffffffffffffffffffffffffffffffffff163373ffffffffffffffffffffffffffffffffffffffff1614610f90576040517f08c379a0000000000000000000000000000000000000000000000000000000008152600401610f8790613aa0565b60405180910390fd5b8383600160006004811115610fce577f4e487b7100000000000000000000000000000000000000000000000000000000600052602160045260246000fd5b60668484604051610fe0929190613914565b908152602001604051809103902060070160009054906101000a900460ff166004811115611037577f4e487b7100000000000000000000000000000000000000000000000000000000600052602160045260246000fd5b1415611078576040517f08c379a000000000000000000000000000000000000000000000000000000000815260040161106f90613b40565b60405180910390fd5b8060048111156110b1577f4e487b7100000000000000000000000000000000000000000000000000000000600052602160045260246000fd5b606684846040516110c3929190613914565b908152602001604051809103902060070160009054906101000a900460ff16600481111561111a577f4e487b7100000000000000000000000000000000000000000000000000000000600052602160045260246000fd5b1461115a576040517f08c379a000000000000000000000000000000000000000000000000000000000815260040161115190613b60565b60405180910390fd5b60006066888860405161116e929190613914565b908152602001604051809103902060030190506002808111156111ba577f4e487b7100000000000000000000000000000000000000000000000000000000600052602160045260246000fd5b8660028111156111f3577f4e487b7100000000000000000000000000000000000000000000000000000000600052602160045260246000fd5b141561121f576066888860405161120b929190613914565b908152602001604051809103902060040190505b60005b81805490508110156113755785828281548110611268577f4e487b7100000000000000000000000000000000000000000000000000000000600052603260045260246000fd5b9060005260206000200154141561136257816001838054905061128b9190613d8e565b815481106112c2577f4e487b7100000000000000000000000000000000000000000000000000000000600052603260045260246000fd5b9060005260206000200154828281548110611306577f4e487b7100000000000000000000000000000000000000000000000000000000600052603260045260246000fd5b90600052602060002001819055508180548061134b577f4e487b7100000000000000000000000000000000000000000000000000000000600052603160045260246000fd5b600190038181906000526020600020016000905590555b808061136d90613f17565b915050611222565b505050505050505050565b600060048111156113ba577f4e487b7100000000000000000000000000000000000000000000000000000000600052602160045260246000fd5b606685856040516113cc929190613914565b908152602001604051809103902060070160009054906101000a900460ff166004811115611423577f4e487b7100000000000000000000000000000000000000000000000000000000600052602160045260246000fd5b14611463576040517f08c379a000000000000000000000000000000000000000000000000000000000815260040161145a90613ac0565b60405180910390fd5b8460668585604051611476929190613914565b908152602001604051809103902060010160006101000a81548173ffffffffffffffffffffffffffffffffffffffff021916908373ffffffffffffffffffffffffffffffffffffffff16021790555033606685856040516114d8929190613914565b908152602001604051809103902060020160006101000a81548173ffffffffffffffffffffffffffffffffffffffff021916908373ffffffffffffffffffffffffffffffffffffffff16021790555083836066868660405161153b929190613914565b90815260200160405180910390206000019190611559929190612e25565b50816066858560405161156d929190613914565b9081526020016040518091039020600501819055508060668585604051611595929190613914565b9081526020016040518091039020600601819055506001606685856040516115be929190613914565b908152602001604051809103902060070160006101000a81548160ff02191690836004811115611617577f4e487b7100000000000000000000000000000000000000000000000000000000600052602160045260246000fd5b02179055506067848490918060018154018082558091505060019003906000526020600020016000909192909192909192909192509190611659929190612e25565b505050505050565b611669612eab565b606080600060048111156116a6577f4e487b7100000000000000000000000000000000000000000000000000000000600052602160045260246000fd5b606686866040516116b8929190613914565b908152602001604051809103902060070160009054906101000a900460ff16600481111561170f577f4e487b7100000000000000000000000000000000000000000000000000000000600052602160045260246000fd5b1415611750576040517f08c379a000000000000000000000000000000000000000000000000000000000815260040161174790613b40565b60405180910390fd5b611758612eab565b6066868660405161176a929190613914565b908152602001604051809103902060010160009054906101000a900473ffffffffffffffffffffffffffffffffffffffff16816000019073ffffffffffffffffffffffffffffffffffffffff16908173ffffffffffffffffffffffffffffffffffffffff1681525050606686866040516117e5929190613914565b908152602001604051809103902060020160009054906101000a900473ffffffffffffffffffffffffffffffffffffffff16816020019073ffffffffffffffffffffffffffffffffffffffff16908173ffffffffffffffffffffffffffffffffffffffff168152505060668686604051611860929190613914565b9081526020016040518091039020600601548160600181815250506066868660405161188d929190613914565b908152602001604051809103902060050154816040018181525050606686866040516118ba929190613914565b908152602001604051809103902060070160009054906101000a900460ff1681608001906004811115611916577f4e487b7100000000000000000000000000000000000000000000000000000000600052602160045260246000fd5b90816004811115611950577f4e487b7100000000000000000000000000000000000000000000000000000000600052602160045260246000fd5b815250506000606560009054906101000a900473ffffffffffffffffffffffffffffffffffffffff1673ffffffffffffffffffffffffffffffffffffffff16635ec26c1f606689896040516119a6929190613914565b90815260200160405180910390206003016040518263ffffffff1660e01b81526004016119d391906139ba565b60006040518083038186803b1580156119eb57600080fd5b505afa1580156119ff573d6000803e3d6000fd5b505050506040513d6000823e3d601f19601f82011682018060405250810190611a289190613175565b90506000606560009054906101000a900473ffffffffffffffffffffffffffffffffffffffff1673ffffffffffffffffffffffffffffffffffffffff1663bacdf40b60668a8a604051611a7c929190613914565b90815260200160405180910390206004016040518263ffffffff1660e01b8152600401611aa991906139ba565b60006040518083038186803b158015611ac157600080fd5b505afa158015611ad5573d6000803e3d6000fd5b505050506040513d6000823e3d601f19601f82011682018060405250810190611afe9190613175565b90508282829550955095505050509250925092565b606560009054906101000a900473ffffffffffffffffffffffffffffffffffffffff1673ffffffffffffffffffffffffffffffffffffffff163373ffffffffffffffffffffffffffffffffffffffff1614611ba3576040517f08c379a0000000000000000000000000000000000000000000000000000000008152600401611b9a90613aa0565b60405180910390fd5b8383600160006004811115611be1577f4e487b7100000000000000000000000000000000000000000000000000000000600052602160045260246000fd5b60668484604051611bf3929190613914565b908152602001604051809103902060070160009054906101000a900460ff166004811115611c4a577f4e487b7100000000000000000000000000000000000000000000000000000000600052602160045260246000fd5b1415611c8b576040517f08c379a0000000000000000000000000000000000000000000000000000000008152600401611c8290613b40565b60405180910390fd5b806004811115611cc4577f4e487b7100000000000000000000000000000000000000000000000000000000600052602160045260246000fd5b60668484604051611cd6929190613914565b908152602001604051809103902060070160009054906101000a900460ff166004811115611d2d577f4e487b7100000000000000000000000000000000000000000000000000000000600052602160045260246000fd5b14611d6d576040517f08c379a0000000000000000000000000000000000000000000000000000000008152600401611d6490613b60565b60405180910390fd5b60016002811115611da7577f4e487b7100000000000000000000000000000000000000000000000000000000600052602160045260246000fd5b856002811115611de0577f4e487b7100000000000000000000000000000000000000000000000000000000600052602160045260246000fd5b1415611e355760668787604051611df8929190613914565b9081526020016040518091039020600301849080600181540180825580915050600190039060005260206000200160009091909190915055611ef9565b600280811115611e6e577f4e487b7100000000000000000000000000000000000000000000000000000000600052602160045260246000fd5b856002811115611ea7577f4e487b7100000000000000000000000000000000000000000000000000000000600052602160045260246000fd5b1415611ef85760668787604051611ebf929190613914565b90815260200160405180910390206004018490806001815401808255809150506001900390600052602060002001600090919091909150555b5b50505050505050565b6060606560009054906101000a900473ffffffffffffffffffffffffffffffffffffffff1673ffffffffffffffffffffffffffffffffffffffff163373ffffffffffffffffffffffffffffffffffffffff1614611f94576040517f08c379a0000000000000000000000000000000000000000000000000000000008152600401611f8b90613aa0565b60405180910390fd5b606060016002811115611fd0577f4e487b7100000000000000000000000000000000000000000000000000000000600052602160045260246000fd5b836002811115612009577f4e487b7100000000000000000000000000000000000000000000000000000000600052602160045260246000fd5b14156120885760668585604051612021929190613914565b908152602001604051809103902060030180548060200260200160405190810160405280929190818152602001828054801561207c57602002820191906000526020600020905b815481526020019060010190808311612068575b50505050509050612176565b6002808111156120c1577f4e487b7100000000000000000000000000000000000000000000000000000000600052602160045260246000fd5b8360028111156120fa577f4e487b7100000000000000000000000000000000000000000000000000000000600052602160045260246000fd5b14156121755760668585604051612112929190613914565b908152602001604051809103902060040180548060200260200160405190810160405280929190818152602001828054801561216d57602002820191906000526020600020905b815481526020019060010190808311612159575b505050505090505b5b809150509392505050565b612189612ad0565b73ffffffffffffffffffffffffffffffffffffffff166121a761229d565b73ffffffffffffffffffffffffffffffffffffffff16146121fd576040517f08c379a00000000000000000000000000000000000000000000000000000000081526004016121f490613b20565b60405180910390fd5b6122076000612b31565b565b60006122156001612bf7565b90508015612239576001600060016101000a81548160ff0219169083151502179055505b612241612ce7565b801561229a5760008060016101000a81548160ff0219169083151502179055507f7f26b83ff96e1f2b6a682f133852f6798a09c465da95921460cefb3847402498600160405161229191906139f7565b60405180910390a15b50565b6000603360009054906101000a900473ffffffffffffffffffffffffffffffffffffffff16905090565b6060600060678054905067ffffffffffffffff811115612310577f4e487b7100000000000000000000000000000000000000000000000000000000600052604160045260246000fd5b60405190808252806020026020018201604052801561234357816020015b606081526020019060019003908161232e5790505b5090506000805b606780549050811015612542578473ffffffffffffffffffffffffffffffffffffffff166066606783815481106123aa577f4e487b7100000000000000000000000000000000000000000000000000000000600052603260045260246000fd5b906000526020600020016040516123c19190613944565b908152602001604051809103902060010160009054906101000a900473ffffffffffffffffffffffffffffffffffffffff1673ffffffffffffffffffffffffffffffffffffffff16141561252f5760678181548110612449577f4e487b7100000000000000000000000000000000000000000000000000000000600052603260045260246000fd5b90600052602060002001805461245e90613e9a565b80601f016020809104026020016040519081016040528092919081815260200182805461248a90613e9a565b80156124d75780601f106124ac576101008083540402835291602001916124d7565b820191906000526020600020905b8154815290600101906020018083116124ba57829003601f168201915b5050505050838381518110612515577f4e487b7100000000000000000000000000000000000000000000000000000000600052603260045260246000fd5b6020026020010181905250818061252b90613f17565b9250505b808061253a90613f17565b91505061234a565b508192505050919050565b6000606560009054906101000a900473ffffffffffffffffffffffffffffffffffffffff1673ffffffffffffffffffffffffffffffffffffffff163373ffffffffffffffffffffffffffffffffffffffff16146125df576040517f08c379a00000000000000000000000000000000000000000000000000000000081526004016125d690613aa0565b60405180910390fd5b8383836000600481111561261c577f4e487b7100000000000000000000000000000000000000000000000000000000600052602160045260246000fd5b6066848460405161262e929190613914565b908152602001604051809103902060070160009054906101000a900460ff166004811115612685577f4e487b7100000000000000000000000000000000000000000000000000000000600052602160045260246000fd5b14156126c6576040517f08c379a00000000000000000000000000000000000000000000000000000000081526004016126bd90613b40565b60405180910390fd5b8060048111156126ff577f4e487b7100000000000000000000000000000000000000000000000000000000600052602160045260246000fd5b60668484604051612711929190613914565b908152602001604051809103902060070160009054906101000a900460ff166004811115612768577f4e487b7100000000000000000000000000000000000000000000000000000000600052602160045260246000fd5b146127a8576040517f08c379a000000000000000000000000000000000000000000000000000000000815260040161279f90613b60565b60405180910390fd5b600193505050509392505050565b6000606560009054906101000a900473ffffffffffffffffffffffffffffffffffffffff16905090565b6127e8612f3e565b606560009054906101000a900473ffffffffffffffffffffffffffffffffffffffff1673ffffffffffffffffffffffffffffffffffffffff163373ffffffffffffffffffffffffffffffffffffffff1614612878576040517f08c379a000000000000000000000000000000000000000000000000000000000815260040161286f90613aa0565b60405180910390fd5b612880612f3e565b60668484604051612892929190613914565b90815260200160405180910390206004018054806020026020016040519081016040528092919081815260200182805480156128ed57602002820191906000526020600020905b8154815260200190600101908083116128d9575b505050505081604001819052506066848460405161290c929190613914565b908152602001604051809103902060030180548060200260200160405190810160405280929190818152602001828054801561296757602002820191906000526020600020905b815481526020019060010190808311612953575b5050505050816060018190525060668484604051612986929190613914565b908152602001604051809103902060050154816000018181525050606684846040516129b3929190613914565b9081526020016040518091039020600601548160200181815250508091505092915050565b6129e0612ad0565b73ffffffffffffffffffffffffffffffffffffffff166129fe61229d565b73ffffffffffffffffffffffffffffffffffffffff1614612a54576040517f08c379a0000000000000000000000000000000000000000000000000000000008152600401612a4b90613b20565b60405180910390fd5b600073ffffffffffffffffffffffffffffffffffffffff168173ffffffffffffffffffffffffffffffffffffffff161415612ac4576040517f08c379a0000000000000000000000000000000000000000000000000000000008152600401612abb90613a60565b60405180910390fd5b612acd81612b31565b50565b600033905090565b600081604051602001612aeb919061392d565b6040516020818303038152906040528051906020012083604051602001612b12919061392d565b6040516020818303038152906040528051906020012014905092915050565b6000603360009054906101000a900473ffffffffffffffffffffffffffffffffffffffff16905081603360006101000a81548173ffffffffffffffffffffffffffffffffffffffff021916908373ffffffffffffffffffffffffffffffffffffffff1602179055508173ffffffffffffffffffffffffffffffffffffffff168173ffffffffffffffffffffffffffffffffffffffff167f8be0079c531659141344cd1fd0a4f28419497f9722a3daafe3b4186f6b6457e060405160405180910390a35050565b60008060019054906101000a900460ff1615612c6e5760018260ff16148015612c265750612c2430612d40565b155b612c65576040517f08c379a0000000000000000000000000000000000000000000000000000000008152600401612c5c90613b00565b60405180910390fd5b60009050612ce2565b8160ff1660008054906101000a900460ff1660ff1610612cc3576040517f08c379a0000000000000000000000000000000000000000000000000000000008152600401612cba90613b00565b60405180910390fd5b816000806101000a81548160ff021916908360ff160217905550600190505b919050565b600060019054906101000a900460ff16612d36576040517f08c379a0000000000000000000000000000000000000000000000000000000008152600401612d2d90613b80565b60405180910390fd5b612d3e612d63565b565b6000808273ffffffffffffffffffffffffffffffffffffffff163b119050919050565b600060019054906101000a900460ff16612db2576040517f08c379a0000000000000000000000000000000000000000000000000000000008152600401612da990613b80565b60405180910390fd5b612dc2612dbd612ad0565b612b31565b565b508054612dd090613e9a565b6000825580601f10612de25750612e01565b601f016020900490600052602060002090810190612e009190612f66565b5b50565b5080546000825590600052602060002090810190612e229190612f66565b50565b828054612e3190613e9a565b90600052602060002090601f016020900481019282612e535760008555612e9a565b82601f10612e6c57803560ff1916838001178555612e9a565b82800160010185558215612e9a579182015b82811115612e99578235825591602001919060010190612e7e565b5b509050612ea79190612f66565b5090565b6040518060a00160405280600073ffffffffffffffffffffffffffffffffffffffff168152602001600073ffffffffffffffffffffffffffffffffffffffff168152602001600081526020016000815260200160006004811115612f38577f4e487b7100000000000000000000000000000000000000000000000000000000600052602160045260246000fd5b81525090565b6040518060800160405280600081526020016000815260200160608152602001606081525090565b5b80821115612f7f576000816000905550600101612f67565b5090565b6000612f96612f9184613c2c565b613c07565b90508083825260208201905082856020860282011115612fb557600080fd5b60005b85811015612fe55781612fcb8882613004565b845260208401935060208301925050600181019050612fb8565b5050509392505050565b600081359050612ffe81614351565b92915050565b60008151905061301381614351565b92915050565b600082601f83011261302a57600080fd5b815161303a848260208601612f83565b91505092915050565b60008135905061305281614368565b92915050565b60008135905061306781614378565b92915050565b60008083601f84011261307f57600080fd5b8235905067ffffffffffffffff81111561309857600080fd5b6020830191508360018202830111156130b057600080fd5b9250929050565b6000813590506130c681614388565b92915050565b6000602082840312156130de57600080fd5b60006130ec84828501612fef565b91505092915050565b60008060008060006080868803121561310d57600080fd5b600061311b88828901612fef565b955050602086013567ffffffffffffffff81111561313857600080fd5b6131448882890161306d565b94509450506040613157888289016130b7565b9250506060613168888289016130b7565b9150509295509295909350565b60006020828403121561318757600080fd5b600082015167ffffffffffffffff8111156131a157600080fd5b6131ad84828501613019565b91505092915050565b600080602083850312156131c957600080fd5b600083013567ffffffffffffffff8111156131e357600080fd5b6131ef8582860161306d565b92509250509250929050565b60008060006040848603121561321057600080fd5b600084013567ffffffffffffffff81111561322a57600080fd5b6132368682870161306d565b9350935050602061324986828701613043565b9150509250925092565b6000806000806060858703121561326957600080fd5b600085013567ffffffffffffffff81111561328357600080fd5b61328f8782880161306d565b945094505060206132a287828801613043565b92505060406132b3878288016130b7565b91505092959194509250565b6000806000604084860312156132d457600080fd5b600084013567ffffffffffffffff8111156132ee57600080fd5b6132fa8682870161306d565b9350935050602061330d86828701613058565b9150509250925092565b6000613323838361335b565b60208301905092915050565b600061333b83836135ec565b905092915050565b600061334f8383613905565b60208301905092915050565b61336481613dcc565b82525050565b61337381613dcc565b82525050565b600061338482613cb2565b61338e8185613d1d565b935061339983613c58565b8060005b838110156133ca5781516133b18882613317565b97506133bc83613ce9565b92505060018101905061339d565b5085935050505092915050565b60006133e282613cbd565b6133ec8185613d2e565b9350836020820285016133fe85613c68565b8060005b8581101561343a578484038952815161341b858261332f565b945061342683613cf6565b925060208a01995050600181019050613402565b50829750879550505050505092915050565b600061345782613cc8565b6134618185613d3f565b935061346c83613c78565b8060005b8381101561349d5781516134848882613343565b975061348f83613d03565b925050600181019050613470565b5085935050505092915050565b60006134b582613cc8565b6134bf8185613d50565b93506134ca83613c78565b8060005b838110156134fb5781516134e28882613343565b97506134ed83613d03565b9250506001810190506134ce565b5085935050505092915050565b600061351382613cd3565b61351d8185613d50565b935061352883613c88565b8060005b838110156135605761353d8261401c565b6135478882613343565b975061355283613d10565b92505060018101905061352c565b5085935050505092915050565b61357681613dde565b82525050565b61358581613e34565b82525050565b61359481613e46565b82525050565b60006135a68385613d72565b93506135b3838584613e58565b6135bc8361402f565b840190509392505050565b60006135d38385613d83565b93506135e0838584613e58565b82840190509392505050565b60006135f782613cde565b6136018185613d61565b9350613611818560208601613e67565b61361a8161402f565b840191505092915050565b600061363082613cde565b61363a8185613d83565b935061364a818560208601613e67565b80840191505092915050565b6000815461366381613e9a565b61366d8186613d83565b945060018216600081146136885760018114613699576136cc565b60ff198316865281860193506136cc565b6136a285613c9d565b60005b838110156136c4578154818901526001820191506020810190506136a5565b838801955050505b50505092915050565b60006136e2602683613d72565b91506136ed8261404d565b604082019050919050565b6000613705604983613d72565b91506137108261409c565b606082019050919050565b6000613728601e83613d72565b915061373382614111565b602082019050919050565b600061374b602383613d72565b91506137568261413a565b604082019050919050565b600061376e602283613d72565b915061377982614189565b604082019050919050565b6000613791602e83613d72565b915061379c826141d8565b604082019050919050565b60006137b4602083613d72565b91506137bf82614227565b602082019050919050565b60006137d7602283613d72565b91506137e282614250565b604082019050919050565b60006137fa602e83613d72565b91506138058261429f565b604082019050919050565b600061381d602b83613d72565b9150613828826142ee565b604082019050919050565b600060808301600083015161384b6000860182613905565b50602083015161385e6020860182613905565b5060408301518482036040860152613876828261344c565b91505060608301518482036060860152613890828261344c565b9150508091505092915050565b60a0820160008201516138b3600085018261335b565b5060208201516138c6602085018261335b565b5060408201516138d96040850182613905565b5060608201516138ec6060850182613905565b5060808201516138ff608085018261357c565b50505050565b61390e81613e1d565b82525050565b60006139218284866135c7565b91508190509392505050565b60006139398284613625565b915081905092915050565b60006139508284613656565b915081905092915050565b6000602082019050613970600083018461336a565b92915050565b6000602082019050818103600083015261399081846133d7565b905092915050565b600060208201905081810360008301526139b281846134aa565b905092915050565b600060208201905081810360008301526139d48184613508565b905092915050565b60006020820190506139f1600083018461356d565b92915050565b6000602082019050613a0c600083018461358b565b92915050565b60006060820190508181036000830152613a2d81868861359a565b90508181036020830152613a4181856134aa565b90508181036040830152613a5581846134aa565b905095945050505050565b60006020820190508181036000830152613a79816136d5565b9050919050565b60006020820190508181036000830152613a99816136f8565b9050919050565b60006020820190508181036000830152613ab98161371b565b9050919050565b60006020820190508181036000830152613ad98161373e565b9050919050565b60006020820190508181036000830152613af981613761565b9050919050565b60006020820190508181036000830152613b1981613784565b9050919050565b60006020820190508181036000830152613b39816137a7565b9050919050565b60006020820190508181036000830152613b59816137ca565b9050919050565b60006020820190508181036000830152613b79816137ed565b9050919050565b60006020820190508181036000830152613b9981613810565b9050919050565b60006020820190508181036000830152613bba8184613833565b905092915050565b600060e082019050613bd7600083018661389d565b81810360a0830152613be98185613379565b905081810360c0830152613bfd8184613379565b9050949350505050565b6000613c11613c22565b9050613c1d8282613ee6565b919050565b6000604051905090565b600067ffffffffffffffff821115613c4757613c46613fed565b5b602082029050602081019050919050565b6000819050602082019050919050565b6000819050602082019050919050565b6000819050602082019050919050565b60008190508160005260206000209050919050565b60008190508160005260206000209050919050565b600081519050919050565b600081519050919050565b600081519050919050565b600081549050919050565b600081519050919050565b6000602082019050919050565b6000602082019050919050565b6000602082019050919050565b6000600182019050919050565b600082825260208201905092915050565b600082825260208201905092915050565b600082825260208201905092915050565b600082825260208201905092915050565b600082825260208201905092915050565b600082825260208201905092915050565b600081905092915050565b6000613d9982613e1d565b9150613da483613e1d565b925082821015613db757613db6613f60565b5b828203905092915050565b6000819050919050565b6000613dd782613dfd565b9050919050565b60008115159050919050565b6000819050613df88261433d565b919050565b600073ffffffffffffffffffffffffffffffffffffffff82169050919050565b6000819050919050565b600060ff82169050919050565b6000613e3f82613dea565b9050919050565b6000613e5182613e27565b9050919050565b82818337600083830152505050565b60005b83811015613e85578082015181840152602081019050613e6a565b83811115613e94576000848401525b50505050565b60006002820490506001821680613eb257607f821691505b60208210811415613ec657613ec5613fbe565b5b50919050565b6000613edf613eda83614040565b613dc2565b9050919050565b613eef8261402f565b810181811067ffffffffffffffff82111715613f0e57613f0d613fed565b5b80604052505050565b6000613f2282613e1d565b91507fffffffffffffffffffffffffffffffffffffffffffffffffffffffffffffffff821415613f5557613f54613f60565b5b600182019050919050565b7f4e487b7100000000000000000000000000000000000000000000000000000000600052601160045260246000fd5b7f4e487b7100000000000000000000000000000000000000000000000000000000600052602160045260246000fd5b7f4e487b7100000000000000000000000000000000000000000000000000000000600052602260045260246000fd5b7f4e487b7100000000000000000000000000000000000000000000000000000000600052604160045260246000fd5b60006140288254613ecc565b9050919050565b6000601f19601f8301169050919050565b60008160001c9050919050565b7f4f776e61626c653a206e6577206f776e657220697320746865207a65726f206160008201527f6464726573730000000000000000000000000000000000000000000000000000602082015250565b7f496e206f7264657220746f20626567696e2061207461736b2c2069742073686f60008201527f756c642068617665206174206c65617374203120726576696577657220616e6460208201527f203120776f726b65720000000000000000000000000000000000000000000000604082015250565b7f596f7520617265206e6f7420616c6c6f77656420746f20646f20746861740000600082015250565b7f546865207461736b2077697468207468697320494420616c726561647920657860008201527f6973740000000000000000000000000000000000000000000000000000000000602082015250565b7f4f6e6c79206f776e6572206f6620746865207461736b2063616e20646f20746860008201527f6174000000000000000000000000000000000000000000000000000000000000602082015250565b7f496e697469616c697a61626c653a20636f6e747261637420697320616c72656160008201527f647920696e697469616c697a6564000000000000000000000000000000000000602082015250565b7f4f776e61626c653a2063616c6c6572206973206e6f7420746865206f776e6572600082015250565b7f41207461736b2077697468207468697320494420646f6573206e6f742065786960008201527f7374000000000000000000000000000000000000000000000000000000000000602082015250565b7f596f752063616e277420646f207468697320616374696f6e206174206375727260008201527f656e74205461736b207374616765000000000000000000000000000000000000602082015250565b7f496e697469616c697a61626c653a20636f6e7472616374206973206e6f74206960008201527f6e697469616c697a696e67000000000000000000000000000000000000000000602082015250565b6005811061434e5761434d613f8f565b5b50565b61435a81613dcc565b811461436557600080fd5b50565b6003811061437557600080fd5b50565b6005811061438557600080fd5b50565b61439181613e1d565b811461439c57600080fd5b5056fea2646970667358221220fb4cd4cc2bcfbc1f0b49b0247ee5a9187334e714a3e21659af2ca6a7016b66e964736f6c63430008040033",
  "linkReferences": {},
  "deployedLinkReferences": {}
}